{
  "address": "0xc75f4330C26bC358b3D8d209B3a05605890C1a0e",
  "abi": [
    {
      "anonymous": false,
      "inputs": [
        {
          "indexed": true,
          "internalType": "uint256",
          "name": "betId",
          "type": "uint256"
        },
        {
          "indexed": true,
          "internalType": "address",
          "name": "bondCurrency",
          "type": "address"
        },
        {
          "indexed": true,
          "internalType": "uint256",
          "name": "refundAmount",
          "type": "uint256"
        }
      ],
      "name": "BetCanceled",
      "type": "event"
    },
    {
      "anonymous": false,
      "inputs": [
        {
          "indexed": true,
          "internalType": "uint256",
          "name": "betId",
          "type": "uint256"
        },
        {
          "indexed": true,
          "internalType": "uint256",
          "name": "affirmationRefund",
          "type": "uint256"
        },
        {
          "indexed": true,
          "internalType": "uint256",
          "name": "negationRefund",
          "type": "uint256"
        }
      ],
      "name": "BetKilled",
      "type": "event"
    },
    {
      "anonymous": false,
      "inputs": [
        {
          "indexed": true,
          "internalType": "address",
          "name": "creator",
          "type": "address"
        },
        {
          "indexed": true,
          "internalType": "address",
          "name": "bondCurrency",
          "type": "address"
        },
        {
          "indexed": true,
          "internalType": "bytes",
          "name": "ancillaryData",
          "type": "bytes"
        },
        {
          "indexed": false,
          "internalType": "uint256",
          "name": "betId",
          "type": "uint256"
        }
      ],
      "name": "BetSet",
      "type": "event"
    },
    {
      "anonymous": false,
      "inputs": [
        {
          "indexed": true,
          "internalType": "address",
          "name": "affirmation",
          "type": "address"
        },
        {
          "indexed": true,
          "internalType": "address",
          "name": "negation",
          "type": "address"
        },
        {
          "indexed": true,
          "internalType": "uint256",
          "name": "betId",
          "type": "uint256"
        }
      ],
      "name": "BetSettled",
      "type": "event"
    },
    {
      "anonymous": false,
      "inputs": [
        {
          "indexed": true,
          "internalType": "address",
          "name": "taker",
          "type": "address"
        },
        {
          "indexed": true,
          "internalType": "uint256",
          "name": "betId",
          "type": "uint256"
        }
      ],
      "name": "BetTaken",
      "type": "event"
    },
    {
      "anonymous": false,
      "inputs": [
        {
          "indexed": true,
          "internalType": "address",
          "name": "affirmation",
          "type": "address"
        },
        {
          "indexed": true,
          "internalType": "address",
          "name": "negation",
          "type": "address"
        },
        {
          "indexed": true,
          "internalType": "uint256",
          "name": "betId",
          "type": "uint256"
        }
      ],
      "name": "DataRequested",
      "type": "event"
    },
    {
      "anonymous": false,
      "inputs": [
        {
          "indexed": true,
          "internalType": "uint256",
          "name": "betId",
          "type": "uint256"
        },
        {
          "indexed": true,
          "internalType": "uint256",
          "name": "totalWinnings",
          "type": "uint256"
        },
        {
          "indexed": true,
          "internalType": "int256",
          "name": "winner",
          "type": "int256"
        }
      ],
      "name": "WinningsClaimed",
      "type": "event"
    },
    {
      "inputs": [
        {
          "internalType": "uint256",
          "name": "",
          "type": "uint256"
        }
      ],
      "name": "betAmounts",
      "outputs": [
        {
          "internalType": "uint256",
          "name": "betId",
          "type": "uint256"
        },
        {
          "internalType": "address",
          "name": "affirmation",
          "type": "address"
        },
        {
          "internalType": "uint256",
          "name": "affirmationAmount",
          "type": "uint256"
        },
        {
          "internalType": "address",
          "name": "negation",
          "type": "address"
        },
        {
          "internalType": "uint256",
          "name": "negationAmount",
          "type": "uint256"
        },
        {
          "internalType": "uint256",
          "name": "reward",
          "type": "uint256"
        }
      ],
      "stateMutability": "view",
      "type": "function"
    },
    {
      "inputs": [],
      "name": "betId",
      "outputs": [
        {
          "internalType": "uint256",
          "name": "",
          "type": "uint256"
        }
      ],
      "stateMutability": "view",
      "type": "function"
    },
    {
      "inputs": [
        {
          "internalType": "uint256",
          "name": "",
          "type": "uint256"
        }
      ],
      "name": "bets",
      "outputs": [
        {
          "internalType": "uint256",
          "name": "betId",
          "type": "uint256"
        },
        {
          "internalType": "bytes",
          "name": "question",
          "type": "bytes"
        },
        {
          "internalType": "uint256",
          "name": "expiry",
          "type": "uint256"
        },
        {
          "internalType": "contract IERC20",
          "name": "bondCurrency",
          "type": "address"
        },
        {
          "internalType": "address",
          "name": "creator",
          "type": "address"
        },
        {
          "internalType": "bool",
          "name": "privateBet",
          "type": "bool"
        },
        {
          "internalType": "uint256",
          "name": "liveness",
          "type": "uint256"
        },
        {
          "internalType": "bytes",
          "name": "imgUrl",
          "type": "bytes"
        },
        {
          "internalType": "enum OO_BetHandler.BetStatus",
          "name": "betStatus",
          "type": "uint8"
        }
      ],
      "stateMutability": "view",
      "type": "function"
    },
    {
      "inputs": [
        {
          "internalType": "uint256",
          "name": "_betId",
          "type": "uint256"
        }
      ],
      "name": "cancelBet",
      "outputs": [],
      "stateMutability": "nonpayable",
      "type": "function"
    },
    {
      "inputs": [
        {
          "internalType": "uint256",
          "name": "_betId",
          "type": "uint256"
        }
      ],
      "name": "claimWinnings",
      "outputs": [],
      "stateMutability": "nonpayable",
      "type": "function"
    },
    {
      "inputs": [
        {
          "internalType": "string",
          "name": "_question",
          "type": "string"
        }
      ],
      "name": "createQuestion",
      "outputs": [
        {
          "internalType": "bytes",
          "name": "",
          "type": "bytes"
        }
      ],
      "stateMutability": "pure",
      "type": "function"
    },
    {
      "inputs": [
        {
          "internalType": "uint256",
          "name": "_betId",
          "type": "uint256"
        }
      ],
      "name": "getSettledData",
      "outputs": [
        {
          "internalType": "int256",
          "name": "",
          "type": "int256"
        }
      ],
      "stateMutability": "view",
      "type": "function"
    },
    {
      "inputs": [
        {
          "internalType": "uint256",
          "name": "_betId",
          "type": "uint256"
        }
      ],
      "name": "killBet",
      "outputs": [],
      "stateMutability": "nonpayable",
      "type": "function"
    },
    {
      "inputs": [
        {
          "internalType": "uint256",
          "name": "_betId",
          "type": "uint256"
        },
        {
          "internalType": "bool",
          "name": "_affirmation",
          "type": "bool"
        },
        {
          "internalType": "uint256",
          "name": "_betAmount",
          "type": "uint256"
        },
        {
          "internalType": "uint256",
          "name": "_counterBetAmount",
          "type": "uint256"
        },
        {
          "internalType": "address",
          "name": "_privateBetRecipient",
          "type": "address"
        },
        {
          "internalType": "uint256",
          "name": "_reward",
          "type": "uint256"
        }
      ],
      "name": "loadBet",
      "outputs": [],
      "stateMutability": "nonpayable",
      "type": "function"
    },
    {
      "inputs": [
        {
          "internalType": "uint256",
          "name": "_betId",
          "type": "uint256"
        }
      ],
      "name": "requestData",
      "outputs": [],
      "stateMutability": "nonpayable",
      "type": "function"
    },
    {
      "inputs": [
        {
          "internalType": "string",
          "name": "_question",
          "type": "string"
        },
        {
          "internalType": "address",
          "name": "_bondCurrency",
          "type": "address"
        },
        {
          "internalType": "uint256",
          "name": "_liveness",
          "type": "uint256"
        },
        {
          "internalType": "uint256",
          "name": "_expiry",
          "type": "uint256"
        },
        {
          "internalType": "bool",
          "name": "_privateBet",
          "type": "bool"
        },
        {
          "internalType": "string",
          "name": "_imgUrl",
          "type": "string"
        }
      ],
      "name": "setBet",
      "outputs": [],
      "stateMutability": "nonpayable",
      "type": "function"
    },
    {
      "inputs": [
        {
          "internalType": "uint256",
          "name": "_betId",
          "type": "uint256"
        }
      ],
      "name": "settleRequest",
      "outputs": [],
      "stateMutability": "nonpayable",
      "type": "function"
    },
    {
      "inputs": [
        {
          "internalType": "uint256",
          "name": "_betId",
          "type": "uint256"
        }
      ],
      "name": "takeBet",
      "outputs": [],
      "stateMutability": "nonpayable",
      "type": "function"
    },
    {
      "inputs": [
        {
          "internalType": "address",
          "name": "",
          "type": "address"
        },
        {
          "internalType": "uint256",
          "name": "",
          "type": "uint256"
        }
      ],
      "name": "userBets",
      "outputs": [
        {
          "internalType": "uint256",
          "name": "",
          "type": "uint256"
        }
      ],
      "stateMutability": "view",
      "type": "function"
    }
  ],
  "transactionHash": "0x69a5bb6048b8adeb96559c9ebb4c5777cfdc9580b58d2b241fd9bc531d7e014e",
  "args": [],
  "numDeployments": 3,
  "solcInputHash": "4ae1631712f085637ba9846640adf81b",
  "bytecode": "0x608060405273a5b9d8a0b0fa04ba71bdd68069661ed5c0848884600160006101000a81548173ffffffffffffffffffffffffffffffffffffffff021916908373ffffffffffffffffffffffffffffffffffffffff1602179055506000600255600060035534801561006f57600080fd5b506001600081905550614117806100876000396000f3fe608060405234801561001057600080fd5b50600436106100ea5760003560e01c8063b3580c1e1161008c578063d247f92b11610066578063d247f92b14610266578063d326efb514610282578063dc60054e1461029e578063e5da66af146102ba576100ea565b8063b3580c1e146101fe578063bf7c0c5d1461022e578063c511a0741461024a576100ea565b8063357401f5116100c8578063357401f514610161578063677bd9ff1461017d57806374410429146101995780638068aa68146101ce576100ea565b806322af00fa146100ef57806327bce91b146101275780632adb9e3c14610145575b600080fd5b610109600480360381019061010491906128fb565b6102ea565b60405161011e99989796959493929190612af9565b60405180910390f35b61012f6104a2565b60405161013c9190612b94565b60405180910390f35b61015f600480360381019061015a91906128fb565b6104a8565b005b61017b600480360381019061017691906128fb565b610889565b005b610197600480360381019061019291906128fb565b610bdb565b005b6101b360048036038101906101ae91906128fb565b611125565b6040516101c596959493929190612baf565b60405180910390f35b6101e860048036038101906101e39190612c3c565b6111a1565b6040516101f59190612b94565b60405180910390f35b61021860048036038101906102139190612db1565b6111d2565b6040516102259190612dfa565b60405180910390f35b61024860048036038101906102439190612e48565b611201565b005b610264600480360381019061025f91906128fb565b6115c6565b005b610280600480360381019061027b91906128fb565b611c1d565b005b61029c60048036038101906102979190612f35565b611f1c565b005b6102b860048036038101906102b391906128fb565b6122a1565b005b6102d460048036038101906102cf91906128fb565b61269e565b6040516102e1919061301d565b60405180910390f35b600460205280600052604060002060009150905080600001549080600101805461031390613067565b80601f016020809104026020016040519081016040528092919081815260200182805461033f90613067565b801561038c5780601f106103615761010080835404028352916020019161038c565b820191906000526020600020905b81548152906001019060200180831161036f57829003601f168201915b5050505050908060020154908060030160009054906101000a900473ffffffffffffffffffffffffffffffffffffffff16908060040160009054906101000a900473ffffffffffffffffffffffffffffffffffffffff16908060040160149054906101000a900460ff169080600501549080600601805461040c90613067565b80601f016020809104026020016040519081016040528092919081815260200182805461043890613067565b80156104855780601f1061045a57610100808354040283529160200191610485565b820191906000526020600020905b81548152906001019060200180831161046857829003601f168201915b5050505050908060070160009054906101000a900460ff16905089565b60035481565b60006004600083815260200190815260200160002090506000600560008481526020019081526020016000209050600260068111156104ea576104e9612a82565b5b8260070160009054906101000a900460ff16600681111561050e5761050d612a82565b5b1461054e576040517f08c379a0000000000000000000000000000000000000000000000000000000008152600401610545906130f5565b60405180910390fd5b3373ffffffffffffffffffffffffffffffffffffffff168160010160009054906101000a900473ffffffffffffffffffffffffffffffffffffffff1673ffffffffffffffffffffffffffffffffffffffff1614806105fb57503373ffffffffffffffffffffffffffffffffffffffff168160030160009054906101000a900473ffffffffffffffffffffffffffffffffffffffff1673ffffffffffffffffffffffffffffffffffffffff16145b61060457600080fd5b600160009054906101000a900473ffffffffffffffffffffffffffffffffffffffff1673ffffffffffffffffffffffffffffffffffffffff166311df92f17f5945535f4f525f4e4f5f5155455259000000000000000000000000000000000042856001018660030160009054906101000a900473ffffffffffffffffffffffffffffffffffffffff1686600501546040518663ffffffff1660e01b81526004016106b29594939291906131c7565b6020604051808303816000875af11580156106d1573d6000803e3d6000fd5b505050506040513d601f19601f820116820180604052508101906106f59190613236565b50600160009054906101000a900473ffffffffffffffffffffffffffffffffffffffff1673ffffffffffffffffffffffffffffffffffffffff1663473c45fe7f5945535f4f525f4e4f5f51554552590000000000000000000000000000000000428560010186600501546040518563ffffffff1660e01b815260040161077e9493929190613263565b600060405180830381600087803b15801561079857600080fd5b505af11580156107ac573d6000803e3d6000fd5b5050505060038260070160006101000a81548160ff021916908360068111156107d8576107d7612a82565b5b021790555080600001548160030160009054906101000a900473ffffffffffffffffffffffffffffffffffffffff1673ffffffffffffffffffffffffffffffffffffffff168260010160009054906101000a900473ffffffffffffffffffffffffffffffffffffffff1673ffffffffffffffffffffffffffffffffffffffff167f5fbd3f9d4c5b040345228923c9c25c84eaec691ee1219afc5f1d32caec1533ee60405160405180910390a4505050565b610891612858565b6000600460008381526020019081526020016000209050600060056000848152602001908152602001600020905060008060068111156108d4576108d3612a82565b5b8360070160009054906101000a900460ff1660068111156108f8576108f7612a82565b5b148061093957506001600681111561091357610912612a82565b5b8360070160009054906101000a900460ff16600681111561093757610936612a82565b5b145b610978576040517f08c379a000000000000000000000000000000000000000000000000000000000815260040161096f906132fb565b60405180910390fd5b8260040160009054906101000a900473ffffffffffffffffffffffffffffffffffffffff1673ffffffffffffffffffffffffffffffffffffffff163373ffffffffffffffffffffffffffffffffffffffff1614610a0a576040517f08c379a0000000000000000000000000000000000000000000000000000000008152600401610a0190613367565b60405180910390fd5b8160010160009054906101000a900473ffffffffffffffffffffffffffffffffffffffff1673ffffffffffffffffffffffffffffffffffffffff168360040160009054906101000a900473ffffffffffffffffffffffffffffffffffffffff1673ffffffffffffffffffffffffffffffffffffffff1603610a915781600201549050610a99565b816004015490505b8260030160009054906101000a900473ffffffffffffffffffffffffffffffffffffffff1673ffffffffffffffffffffffffffffffffffffffff1663a9059cbb8460040160009054906101000a900473ffffffffffffffffffffffffffffffffffffffff16836040518363ffffffff1660e01b8152600401610b1c929190613387565b6020604051808303816000875af1158015610b3b573d6000803e3d6000fd5b505050506040513d601f19601f82011682018060405250810190610b5f91906133c5565b50808360030160009054906101000a900473ffffffffffffffffffffffffffffffffffffffff1673ffffffffffffffffffffffffffffffffffffffff1684600001547ff17ce20c49b8c306870d5fe42f4badc29fd4c720a2c6a41dd2942f0cd8e77c3560405160405180910390a4505050610bd86128a7565b50565b610be3612858565b60006004600083815260200190815260200160002090506000600560008481526020019081526020016000209050600081600401548260020154610c279190613421565b90506000610c348561269e565b905060046006811115610c4a57610c49612a82565b5b8460070160009054906101000a900460ff166006811115610c6e57610c6d612a82565b5b14610cae576040517f08c379a0000000000000000000000000000000000000000000000000000000008152600401610ca5906134a1565b60405180910390fd5b8260010160009054906101000a900473ffffffffffffffffffffffffffffffffffffffff1673ffffffffffffffffffffffffffffffffffffffff163373ffffffffffffffffffffffffffffffffffffffff161480610d5b57508260030160009054906101000a900473ffffffffffffffffffffffffffffffffffffffff1673ffffffffffffffffffffffffffffffffffffffff163373ffffffffffffffffffffffffffffffffffffffff16145b610d9a576040517f08c379a0000000000000000000000000000000000000000000000000000000008152600401610d919061350d565b60405180910390fd5b670de0b6b3a7640000811480610db05750600081145b610def576040517f08c379a0000000000000000000000000000000000000000000000000000000008152600401610de690613579565b60405180910390fd5b670de0b6b3a76400008103610f5c578260010160009054906101000a900473ffffffffffffffffffffffffffffffffffffffff1673ffffffffffffffffffffffffffffffffffffffff163373ffffffffffffffffffffffffffffffffffffffff1614610e90576040517f08c379a0000000000000000000000000000000000000000000000000000000008152600401610e87906135e5565b60405180910390fd5b8360030160009054906101000a900473ffffffffffffffffffffffffffffffffffffffff1673ffffffffffffffffffffffffffffffffffffffff1663a9059cbb8460010160009054906101000a900473ffffffffffffffffffffffffffffffffffffffff16846040518363ffffffff1660e01b8152600401610f13929190613387565b6020604051808303816000875af1158015610f32573d6000803e3d6000fd5b505050506040513d601f19601f82011682018060405250810190610f5691906133c5565b506110b6565b8260030160009054906101000a900473ffffffffffffffffffffffffffffffffffffffff1673ffffffffffffffffffffffffffffffffffffffff163373ffffffffffffffffffffffffffffffffffffffff1614610fee576040517f08c379a0000000000000000000000000000000000000000000000000000000008152600401610fe590613651565b60405180910390fd5b8360030160009054906101000a900473ffffffffffffffffffffffffffffffffffffffff1673ffffffffffffffffffffffffffffffffffffffff1663a9059cbb8460030160009054906101000a900473ffffffffffffffffffffffffffffffffffffffff16846040518363ffffffff1660e01b8152600401611071929190613387565b6020604051808303816000875af1158015611090573d6000803e3d6000fd5b505050506040513d601f19601f820116820180604052508101906110b491906133c5565b505b60058460070160006101000a81548160ff021916908360068111156110de576110dd612a82565b5b0217905550808285600001547f709206e7f06feafb753d2514917296d705b6de50ca1ce52acb5d16c19efc95b660405160405180910390a4505050506111226128a7565b50565b60056020528060005260406000206000915090508060000154908060010160009054906101000a900473ffffffffffffffffffffffffffffffffffffffff16908060020154908060030160009054906101000a900473ffffffffffffffffffffffffffffffffffffffff16908060040154908060050154905086565b600660205281600052604060002081815481106111bd57600080fd5b90600052602060002001600091509150505481565b60606000826040516020016111e79190613750565b604051602081830303815290604052905080915050919050565b611209612858565b60006004600088815260200190815260200160002090508060040160009054906101000a900473ffffffffffffffffffffffffffffffffffffffff1673ffffffffffffffffffffffffffffffffffffffff163373ffffffffffffffffffffffffffffffffffffffff16146112b2576040517f08c379a00000000000000000000000000000000000000000000000000000000081526004016112a9906137cd565b60405180910390fd5b600060068111156112c6576112c5612a82565b5b8160070160009054906101000a900460ff1660068111156112ea576112e9612a82565b5b1461132a576040517f08c379a000000000000000000000000000000000000000000000000000000000815260040161132190613839565b60405180910390fd5b600080600080600115158a15150361134a57339350889250879050611354565b3391508890508792505b600115158560040160149054906101000a900460ff161515036113b4573373ffffffffffffffffffffffffffffffffffffffff168473ffffffffffffffffffffffffffffffffffffffff16146113ad57869350836113b2565b869150815b505b60006040518060c001604052808d81526020018673ffffffffffffffffffffffffffffffffffffffff1681526020018581526020018473ffffffffffffffffffffffffffffffffffffffff1681526020018381526020018881525090508560030160009054906101000a900473ffffffffffffffffffffffffffffffffffffffff1673ffffffffffffffffffffffffffffffffffffffff166323b872dd33308d6040518463ffffffff1660e01b815260040161147293929190613859565b6020604051808303816000875af1158015611491573d6000803e3d6000fd5b505050506040513d601f19601f820116820180604052508101906114b591906133c5565b5080600560008e81526020019081526020016000206000820151816000015560208201518160010160006101000a81548173ffffffffffffffffffffffffffffffffffffffff021916908373ffffffffffffffffffffffffffffffffffffffff1602179055506040820151816002015560608201518160030160006101000a81548173ffffffffffffffffffffffffffffffffffffffff021916908373ffffffffffffffffffffffffffffffffffffffff1602179055506080820151816004015560a0820151816005015590505060018660070160006101000a81548160ff021916908360068111156115ab576115aa612a82565b5b02179055505050505050506115be6128a7565b505050505050565b6115ce612858565b600060046000838152602001908152602001600020905060006005600084815260200190815260200160002090508160040160009054906101000a900473ffffffffffffffffffffffffffffffffffffffff1673ffffffffffffffffffffffffffffffffffffffff163373ffffffffffffffffffffffffffffffffffffffff160361168e576040517f08c379a0000000000000000000000000000000000000000000000000000000008152600401611685906138dc565b60405180910390fd5b600015158260040160149054906101000a900460ff1615150361179e57600073ffffffffffffffffffffffffffffffffffffffff168160010160009054906101000a900473ffffffffffffffffffffffffffffffffffffffff1673ffffffffffffffffffffffffffffffffffffffff16148061175a5750600073ffffffffffffffffffffffffffffffffffffffff168160030160009054906101000a900473ffffffffffffffffffffffffffffffffffffffff1673ffffffffffffffffffffffffffffffffffffffff16145b611799576040517f08c379a000000000000000000000000000000000000000000000000000000000815260040161179090613948565b60405180910390fd5b61188b565b8060010160009054906101000a900473ffffffffffffffffffffffffffffffffffffffff1673ffffffffffffffffffffffffffffffffffffffff163373ffffffffffffffffffffffffffffffffffffffff16148061184b57508060030160009054906101000a900473ffffffffffffffffffffffffffffffffffffffff1673ffffffffffffffffffffffffffffffffffffffff163373ffffffffffffffffffffffffffffffffffffffff16145b61188a576040517f08c379a0000000000000000000000000000000000000000000000000000000008152600401611881906139b4565b60405180910390fd5b5b6001600681111561189f5761189e612a82565b5b8260070160009054906101000a900460ff1660068111156118c3576118c2612a82565b5b14611903576040517f08c379a00000000000000000000000000000000000000000000000000000000081526004016118fa90613a20565b60405180910390fd5b600073ffffffffffffffffffffffffffffffffffffffff168160010160009054906101000a900473ffffffffffffffffffffffffffffffffffffffff1673ffffffffffffffffffffffffffffffffffffffff1603611a4c578160030160009054906101000a900473ffffffffffffffffffffffffffffffffffffffff1673ffffffffffffffffffffffffffffffffffffffff166323b872dd333084600201546040518463ffffffff1660e01b81526004016119c093929190613859565b6020604051808303816000875af11580156119df573d6000803e3d6000fd5b505050506040513d601f19601f82011682018060405250810190611a0391906133c5565b50338160010160006101000a81548173ffffffffffffffffffffffffffffffffffffffff021916908373ffffffffffffffffffffffffffffffffffffffff160217905550611b39565b8160030160009054906101000a900473ffffffffffffffffffffffffffffffffffffffff1673ffffffffffffffffffffffffffffffffffffffff166323b872dd333084600401546040518463ffffffff1660e01b8152600401611ab193929190613859565b6020604051808303816000875af1158015611ad0573d6000803e3d6000fd5b505050506040513d601f19601f82011682018060405250810190611af491906133c5565b50338160030160006101000a81548173ffffffffffffffffffffffffffffffffffffffff021916908373ffffffffffffffffffffffffffffffffffffffff1602179055505b600660003373ffffffffffffffffffffffffffffffffffffffff1673ffffffffffffffffffffffffffffffffffffffff16815260200190815260200160002083908060018154018082558091505060019003906000526020600020016000909190919091505560028260070160006101000a81548160ff02191690836006811115611bc757611bc6612a82565b5b0217905550823373ffffffffffffffffffffffffffffffffffffffff167f7ed1ee25a0f4816f901eaf4400ccb456dde0d54382927ffb9a58123e9fabc2e960405160405180910390a35050611c1a6128a7565b50565b6000600460008381526020019081526020016000209050600060056000848152602001908152602001600020905060036006811115611c5f57611c5e612a82565b5b8260070160009054906101000a900460ff166006811115611c8357611c82612a82565b5b14611cc3576040517f08c379a0000000000000000000000000000000000000000000000000000000008152600401611cba90613a8c565b60405180910390fd5b3373ffffffffffffffffffffffffffffffffffffffff168160010160009054906101000a900473ffffffffffffffffffffffffffffffffffffffff1673ffffffffffffffffffffffffffffffffffffffff161480611d7057503373ffffffffffffffffffffffffffffffffffffffff168160030160009054906101000a900473ffffffffffffffffffffffffffffffffffffffff1673ffffffffffffffffffffffffffffffffffffffff16145b611d7957600080fd5b600160009054906101000a900473ffffffffffffffffffffffffffffffffffffffff1673ffffffffffffffffffffffffffffffffffffffff16635e9a79a9307f5945535f4f525f4e4f5f51554552590000000000000000000000000000000000600254866001016040518563ffffffff1660e01b8152600401611dff9493929190613aac565b6020604051808303816000875af1158015611e1e573d6000803e3d6000fd5b505050506040513d601f19601f82011682018060405250810190611e429190613236565b5060048260070160006101000a81548160ff02191690836006811115611e6b57611e6a612a82565b5b021790555080600001548160030160009054906101000a900473ffffffffffffffffffffffffffffffffffffffff1673ffffffffffffffffffffffffffffffffffffffff168260010160009054906101000a900473ffffffffffffffffffffffffffffffffffffffff1673ffffffffffffffffffffffffffffffffffffffff167fdbcd882d372171aa04f1d1af4b104cb44e653afc5e0e24f66d1750aeaffd9fec60405160405180910390a4505050565b611f24612858565b6000611f7389898080601f016020809104026020016040519081016040528093929190818152602001838380828437600081840152601f19601f820116905080830192505050505050506111d2565b9050600083838080601f016020809104026020016040519081016040528093929190818152602001838380828437600081840152601f19601f8201169050808301925050505050505090506000889050600060405180610120016040528060035481526020018581526020018981526020018373ffffffffffffffffffffffffffffffffffffffff1681526020013373ffffffffffffffffffffffffffffffffffffffff16815260200188151581526020018a81526020018481526020016000600681111561204557612044612a82565b5b8152509050836040516120589190613b34565b60405180910390208a73ffffffffffffffffffffffffffffffffffffffff163373ffffffffffffffffffffffffffffffffffffffff167f312377a74e3b2d3c110c0a87dc9a32bdfe8152f1163bc6ebbf8549394889ddfd6003546040516120bf9190612b94565b60405180910390a4806004600060035481526020019081526020016000206000820151816000015560208201518160010190816120fc9190613cd8565b506040820151816002015560608201518160030160006101000a81548173ffffffffffffffffffffffffffffffffffffffff021916908373ffffffffffffffffffffffffffffffffffffffff16021790555060808201518160040160006101000a81548173ffffffffffffffffffffffffffffffffffffffff021916908373ffffffffffffffffffffffffffffffffffffffff16021790555060a08201518160040160146101000a81548160ff02191690831515021790555060c0820151816005015560e08201518160060190816121d49190613cd8565b506101008201518160070160006101000a81548160ff0219169083600681111561220157612200612a82565b5b0217905550905050600660003373ffffffffffffffffffffffffffffffffffffffff1673ffffffffffffffffffffffffffffffffffffffff16815260200190815260200160002060035490806001815401808255809150506001900390600052602060002001600090919091909150556001600360008282546122849190613421565b92505081905550505050506122976128a7565b5050505050505050565b6122a9612858565b6000600460008381526020019081526020016000209050600060056000848152602001908152602001600020905060006122e28461269e565b9050600460068111156122f8576122f7612a82565b5b8360070160009054906101000a900460ff16600681111561231c5761231b612a82565b5b1461235c576040517f08c379a0000000000000000000000000000000000000000000000000000000008152600401612353906134a1565b60405180910390fd5b8160010160009054906101000a900473ffffffffffffffffffffffffffffffffffffffff1673ffffffffffffffffffffffffffffffffffffffff163373ffffffffffffffffffffffffffffffffffffffff16148061240957508160030160009054906101000a900473ffffffffffffffffffffffffffffffffffffffff1673ffffffffffffffffffffffffffffffffffffffff163373ffffffffffffffffffffffffffffffffffffffff16145b612448576040517f08c379a000000000000000000000000000000000000000000000000000000000815260040161243f9061350d565b60405180910390fd5b671bc16d674ec800008114612492576040517f08c379a000000000000000000000000000000000000000000000000000000000815260040161248990613df6565b60405180910390fd5b8260030160009054906101000a900473ffffffffffffffffffffffffffffffffffffffff1673ffffffffffffffffffffffffffffffffffffffff1663a9059cbb8360010160009054906101000a900473ffffffffffffffffffffffffffffffffffffffff1684600201546040518363ffffffff1660e01b8152600401612519929190613387565b6020604051808303816000875af1158015612538573d6000803e3d6000fd5b505050506040513d601f19601f8201168201806040525081019061255c91906133c5565b508260030160009054906101000a900473ffffffffffffffffffffffffffffffffffffffff1673ffffffffffffffffffffffffffffffffffffffff1663a9059cbb8360030160009054906101000a900473ffffffffffffffffffffffffffffffffffffffff1684600401546040518363ffffffff1660e01b81526004016125e4929190613387565b6020604051808303816000875af1158015612603573d6000803e3d6000fd5b505050506040513d601f19601f8201168201806040525081019061262791906133c5565b5060068360070160006101000a81548160ff021916908360068111156126505761264f612a82565b5b02179055508160040154826002015483600001547fec8d8a8188ba892bee2a040ee842eb77c0938d7c08100955525d8f68da30a18260405160405180910390a450505061269b6128a7565b50565b60008060046000848152602001908152602001600020905060006005600085815260200190815260200160002090503373ffffffffffffffffffffffffffffffffffffffff168160010160009054906101000a900473ffffffffffffffffffffffffffffffffffffffff1673ffffffffffffffffffffffffffffffffffffffff16148061277a57503373ffffffffffffffffffffffffffffffffffffffff168160030160009054906101000a900473ffffffffffffffffffffffffffffffffffffffff1673ffffffffffffffffffffffffffffffffffffffff16145b61278357600080fd5b600160009054906101000a900473ffffffffffffffffffffffffffffffffffffffff1673ffffffffffffffffffffffffffffffffffffffff1663a9904f9b307f5945535f4f525f4e4f5f51554552590000000000000000000000000000000000600254866001016040518563ffffffff1660e01b81526004016128099493929190613aac565b61020060405180830381865afa158015612827573d6000803e3d6000fd5b505050506040513d601f19601f8201168201806040525081019061284b9190614047565b60c0015192505050919050565b60026000540361289d576040517f08c379a0000000000000000000000000000000000000000000000000000000008152600401612894906140c1565b60405180910390fd5b6002600081905550565b6001600081905550565b6000604051905090565b600080fd5b600080fd5b6000819050919050565b6128d8816128c5565b81146128e357600080fd5b50565b6000813590506128f5816128cf565b92915050565b600060208284031215612911576129106128bb565b5b600061291f848285016128e6565b91505092915050565b612931816128c5565b82525050565b600081519050919050565b600082825260208201905092915050565b60005b83811015612971578082015181840152602081019050612956565b60008484015250505050565b6000601f19601f8301169050919050565b600061299982612937565b6129a38185612942565b93506129b3818560208601612953565b6129bc8161297d565b840191505092915050565b600073ffffffffffffffffffffffffffffffffffffffff82169050919050565b6000819050919050565b6000612a0c612a07612a02846129c7565b6129e7565b6129c7565b9050919050565b6000612a1e826129f1565b9050919050565b6000612a3082612a13565b9050919050565b612a4081612a25565b82525050565b6000612a51826129c7565b9050919050565b612a6181612a46565b82525050565b60008115159050919050565b612a7c81612a67565b82525050565b7f4e487b7100000000000000000000000000000000000000000000000000000000600052602160045260246000fd5b60078110612ac257612ac1612a82565b5b50565b6000819050612ad382612ab1565b919050565b6000612ae382612ac5565b9050919050565b612af381612ad8565b82525050565b600061012082019050612b0f600083018c612928565b8181036020830152612b21818b61298e565b9050612b30604083018a612928565b612b3d6060830189612a37565b612b4a6080830188612a58565b612b5760a0830187612a73565b612b6460c0830186612928565b81810360e0830152612b76818561298e565b9050612b86610100830184612aea565b9a9950505050505050505050565b6000602082019050612ba96000830184612928565b92915050565b600060c082019050612bc46000830189612928565b612bd16020830188612a58565b612bde6040830187612928565b612beb6060830186612a58565b612bf86080830185612928565b612c0560a0830184612928565b979650505050505050565b612c1981612a46565b8114612c2457600080fd5b50565b600081359050612c3681612c10565b92915050565b60008060408385031215612c5357612c526128bb565b5b6000612c6185828601612c27565b9250506020612c72858286016128e6565b9150509250929050565b600080fd5b600080fd5b7f4e487b7100000000000000000000000000000000000000000000000000000000600052604160045260246000fd5b612cbe8261297d565b810181811067ffffffffffffffff82111715612cdd57612cdc612c86565b5b80604052505050565b6000612cf06128b1565b9050612cfc8282612cb5565b919050565b600067ffffffffffffffff821115612d1c57612d1b612c86565b5b612d258261297d565b9050602081019050919050565b82818337600083830152505050565b6000612d54612d4f84612d01565b612ce6565b905082815260208101848484011115612d7057612d6f612c81565b5b612d7b848285612d32565b509392505050565b600082601f830112612d9857612d97612c7c565b5b8135612da8848260208601612d41565b91505092915050565b600060208284031215612dc757612dc66128bb565b5b600082013567ffffffffffffffff811115612de557612de46128c0565b5b612df184828501612d83565b91505092915050565b60006020820190508181036000830152612e14818461298e565b905092915050565b612e2581612a67565b8114612e3057600080fd5b50565b600081359050612e4281612e1c565b92915050565b60008060008060008060c08789031215612e6557612e646128bb565b5b6000612e7389828a016128e6565b9650506020612e8489828a01612e33565b9550506040612e9589828a016128e6565b9450506060612ea689828a016128e6565b9350506080612eb789828a01612c27565b92505060a0612ec889828a016128e6565b9150509295509295509295565b600080fd5b600080fd5b60008083601f840112612ef557612ef4612c7c565b5b8235905067ffffffffffffffff811115612f1257612f11612ed5565b5b602083019150836001820283011115612f2e57612f2d612eda565b5b9250929050565b60008060008060008060008060c0898b031215612f5557612f546128bb565b5b600089013567ffffffffffffffff811115612f7357612f726128c0565b5b612f7f8b828c01612edf565b98509850506020612f928b828c01612c27565b9650506040612fa38b828c016128e6565b9550506060612fb48b828c016128e6565b9450506080612fc58b828c01612e33565b93505060a089013567ffffffffffffffff811115612fe657612fe56128c0565b5b612ff28b828c01612edf565b92509250509295985092959890939650565b6000819050919050565b61301781613004565b82525050565b6000602082019050613032600083018461300e565b92915050565b7f4e487b7100000000000000000000000000000000000000000000000000000000600052602260045260246000fd5b6000600282049050600182168061307f57607f821691505b60208210810361309257613091613038565b5b50919050565b600082825260208201905092915050565b7f426574206e6f7420726561647920746f20626520736574746c65640000000000600082015250565b60006130df601b83613098565b91506130ea826130a9565b602082019050919050565b6000602082019050818103600083015261310e816130d2565b9050919050565b6000819050919050565b61312881613115565b82525050565b60008190508160005260206000209050919050565b6000815461315081613067565b61315a8186612942565b94506001821660008114613175576001811461318b576131be565b60ff1983168652811515602002860193506131be565b6131948561312e565b60005b838110156131b657815481890152600182019150602081019050613197565b808801955050505b50505092915050565b600060a0820190506131dc600083018861311f565b6131e96020830187612928565b81810360408301526131fb8186613143565b905061320a6060830185612a37565b6132176080830184612928565b9695505050505050565b600081519050613230816128cf565b92915050565b60006020828403121561324c5761324b6128bb565b5b600061325a84828501613221565b91505092915050565b6000608082019050613278600083018761311f565b6132856020830186612928565b81810360408301526132978185613143565b90506132a66060830184612928565b95945050505050565b7f42657420616c7265616479206163746976650000000000000000000000000000600082015250565b60006132e5601283613098565b91506132f0826132af565b602082019050919050565b60006020820190508181036000830152613314816132d8565b9050919050565b7f4e6f74206265742063726561746f720000000000000000000000000000000000600082015250565b6000613351600f83613098565b915061335c8261331b565b602082019050919050565b6000602082019050818103600083015261338081613344565b9050919050565b600060408201905061339c6000830185612a58565b6133a96020830184612928565b9392505050565b6000815190506133bf81612e1c565b92915050565b6000602082840312156133db576133da6128bb565b5b60006133e9848285016133b0565b91505092915050565b7f4e487b7100000000000000000000000000000000000000000000000000000000600052601160045260246000fd5b600061342c826128c5565b9150613437836128c5565b925082820190508082111561344f5761344e6133f2565b5b92915050565b7f426574206e6f742079657420736574746c656400000000000000000000000000600082015250565b600061348b601383613098565b915061349682613455565b602082019050919050565b600060208201905081810360008301526134ba8161347e565b9050919050565b7f54686973206973206e6f7420796f757220626574000000000000000000000000600082015250565b60006134f7601483613098565b9150613502826134c1565b602082019050919050565b60006020820190508181036000830152613526816134ea565b9050919050565b7f496e76616c696420736574746c656d656e740000000000000000000000000000600082015250565b6000613563601283613098565b915061356e8261352d565b602082019050919050565b6000602082019050818103600083015261359281613556565b9050919050565b7f4e65676174696f6e20646964206e6f742077696e206265740000000000000000600082015250565b60006135cf601883613098565b91506135da82613599565b602082019050919050565b600060208201905081810360008301526135fe816135c2565b9050919050565b7f41666669726d6174696f6e20646964206e6f742077696e206265740000000000600082015250565b600061363b601b83613098565b915061364682613605565b602082019050919050565b6000602082019050818103600083015261366a8161362e565b9050919050565b7f513a200000000000000000000000000000000000000000000000000000000000815250565b600081519050919050565b600081905092915050565b60006136b882613697565b6136c281856136a2565b93506136d2818560208601612953565b80840191505092915050565b7f3f202d2d2d20413a3120666f72207965732e203020666f72206e6f2e2032206660008201527f6f7220616d626967756f75732f756e6b6e6f7761626c65000000000000000000602082015250565b600061373a6037836136a2565b9150613745826136de565b603782019050919050565b600061375b82613671565b60038201915061376b82846136ad565b91506137768261372d565b915081905092915050565b7f6e6f742063726561746f72000000000000000000000000000000000000000000600082015250565b60006137b7600b83613098565b91506137c282613781565b602082019050919050565b600060208201905081810360008301526137e6816137aa565b9050919050565b7f6e6f74206c6f6164696e67000000000000000000000000000000000000000000600082015250565b6000613823600b83613098565b915061382e826137ed565b602082019050919050565b6000602082019050818103600083015261385281613816565b9050919050565b600060608201905061386e6000830186612a58565b61387b6020830185612a58565b6138886040830184612928565b949350505050565b7f43616e27742074616b6520796f7572206f776e20626574000000000000000000600082015250565b60006138c6601783613098565b91506138d182613890565b602082019050919050565b600060208201905081810360008301526138f5816138b9565b9050919050565b7f42657420616c72656164792074616b656e000000000000000000000000000000600082015250565b6000613932601183613098565b915061393d826138fc565b602082019050919050565b6000602082019050818103600083015261396181613925565b9050919050565b7f4e6f742062657420726563697069656e74000000000000000000000000000000600082015250565b600061399e601183613098565b91506139a982613968565b602082019050919050565b600060208201905081810360008301526139cd81613991565b9050919050565b7f426574206e6f74204f70656e0000000000000000000000000000000000000000600082015250565b6000613a0a600c83613098565b9150613a15826139d4565b602082019050919050565b60006020820190508181036000830152613a39816139fd565b9050919050565b7f426574206e6f7420736574746c696e6700000000000000000000000000000000600082015250565b6000613a76601083613098565b9150613a8182613a40565b602082019050919050565b60006020820190508181036000830152613aa581613a69565b9050919050565b6000608082019050613ac16000830187612a58565b613ace602083018661311f565b613adb6040830185612928565b8181036060830152613aed8184613143565b905095945050505050565b600081905092915050565b6000613b0e82612937565b613b188185613af8565b9350613b28818560208601612953565b80840191505092915050565b6000613b408284613b03565b915081905092915050565b60006020601f8301049050919050565b600082821b905092915050565b600060088302613b987fffffffffffffffffffffffffffffffffffffffffffffffffffffffffffffffff82613b5b565b613ba28683613b5b565b95508019841693508086168417925050509392505050565b6000613bd5613bd0613bcb846128c5565b6129e7565b6128c5565b9050919050565b6000819050919050565b613bef83613bba565b613c03613bfb82613bdc565b848454613b68565b825550505050565b600090565b613c18613c0b565b613c23818484613be6565b505050565b5b81811015613c4757613c3c600082613c10565b600181019050613c29565b5050565b601f821115613c8c57613c5d8161312e565b613c6684613b4b565b81016020851015613c75578190505b613c89613c8185613b4b565b830182613c28565b50505b505050565b600082821c905092915050565b6000613caf60001984600802613c91565b1980831691505092915050565b6000613cc88383613c9e565b9150826002028217905092915050565b613ce182612937565b67ffffffffffffffff811115613cfa57613cf9612c86565b5b613d048254613067565b613d0f828285613c4b565b600060209050601f831160018114613d425760008415613d30578287015190505b613d3a8582613cbc565b865550613da2565b601f198416613d508661312e565b60005b82811015613d7857848901518255600182019150602085019450602081019050613d53565b86831015613d955784890151613d91601f891682613c9e565b8355505b6001600288020188555050505b505050505050565b7f42657420697320736574746c6561626c65000000000000000000000000000000600082015250565b6000613de0601183613098565b9150613deb82613daa565b602082019050919050565b60006020820190508181036000830152613e0f81613dd3565b9050919050565b600080fd5b600081519050613e2a81612c10565b92915050565b6000613e3b82612a46565b9050919050565b613e4b81613e30565b8114613e5657600080fd5b50565b600081519050613e6881613e42565b92915050565b600060e08284031215613e8457613e83613e16565b5b613e8e60e0612ce6565b90506000613e9e848285016133b0565b6000830152506020613eb2848285016133b0565b6020830152506040613ec6848285016133b0565b6040830152506060613eda848285016133b0565b6060830152506080613eee848285016133b0565b60808301525060a0613f0284828501613221565b60a08301525060c0613f1684828501613221565b60c08301525092915050565b613f2b81613004565b8114613f3657600080fd5b50565b600081519050613f4881613f22565b92915050565b60006102008284031215613f6557613f64613e16565b5b613f70610140612ce6565b90506000613f8084828501613e1b565b6000830152506020613f9484828501613e1b565b6020830152506040613fa884828501613e59565b6040830152506060613fbc848285016133b0565b6060830152506080613fd084828501613e6e565b608083015250610160613fe584828501613f39565b60a083015250610180613ffa84828501613f39565b60c0830152506101a061400f84828501613221565b60e0830152506101c061402484828501613221565b610100830152506101e061403a84828501613221565b6101208301525092915050565b6000610200828403121561405e5761405d6128bb565b5b600061406c84828501613f4e565b91505092915050565b7f5265656e7472616e637947756172643a207265656e7472616e742063616c6c00600082015250565b60006140ab601f83613098565b91506140b682614075565b602082019050919050565b600060208201905081810360008301526140da8161409e565b905091905056fea26469706673582212207b25f42370934ab908e32d9da05102d8ba0ab44667a11fae551a91725de49be964736f6c63430008100033",
  "devdoc": {
    "kind": "dev",
    "methods": {},
    "version": 1
  },
  "userdoc": {
    "kind": "user",
    "methods": {},
    "version": 1
  },
  "storageLayout": {
    "storage": [
      {
        "astId": 10,
        "contract": "contracts/OO_BetHandler.sol:OO_BetHandler",
        "label": "_status",
        "offset": 0,
        "slot": "0",
        "type": "t_uint256"
      },
      {
        "astId": 529,
        "contract": "contracts/OO_BetHandler.sol:OO_BetHandler",
        "label": "oo",
        "offset": 0,
        "slot": "1",
        "type": "t_contract(OptimisticOracleV2Interface)517"
      },
      {
        "astId": 532,
        "contract": "contracts/OO_BetHandler.sol:OO_BetHandler",
        "label": "requestTime",
        "offset": 0,
        "slot": "2",
        "type": "t_uint256"
      },
      {
        "astId": 645,
        "contract": "contracts/OO_BetHandler.sol:OO_BetHandler",
        "label": "betId",
        "offset": 0,
        "slot": "3",
        "type": "t_uint256"
      },
      {
        "astId": 650,
        "contract": "contracts/OO_BetHandler.sol:OO_BetHandler",
        "label": "bets",
        "offset": 0,
        "slot": "4",
        "type": "t_mapping(t_uint256,t_struct(Bet)565_storage)"
      },
      {
        "astId": 655,
        "contract": "contracts/OO_BetHandler.sol:OO_BetHandler",
        "label": "betAmounts",
        "offset": 0,
        "slot": "5",
        "type": "t_mapping(t_uint256,t_struct(BetAmount)578_storage)"
      },
      {
        "astId": 660,
        "contract": "contracts/OO_BetHandler.sol:OO_BetHandler",
        "label": "userBets",
        "offset": 0,
        "slot": "6",
        "type": "t_mapping(t_address,t_array(t_uint256)dyn_storage)"
      }
    ],
    "types": {
      "t_address": {
        "encoding": "inplace",
        "label": "address",
        "numberOfBytes": "20"
      },
      "t_array(t_uint256)dyn_storage": {
        "base": "t_uint256",
        "encoding": "dynamic_array",
        "label": "uint256[]",
        "numberOfBytes": "32"
      },
      "t_bool": {
        "encoding": "inplace",
        "label": "bool",
        "numberOfBytes": "1"
      },
      "t_bytes_storage": {
        "encoding": "bytes",
        "label": "bytes",
        "numberOfBytes": "32"
      },
      "t_contract(IERC20)131": {
        "encoding": "inplace",
        "label": "contract IERC20",
        "numberOfBytes": "20"
      },
      "t_contract(OptimisticOracleV2Interface)517": {
        "encoding": "inplace",
        "label": "contract OptimisticOracleV2Interface",
        "numberOfBytes": "20"
      },
      "t_enum(BetStatus)586": {
        "encoding": "inplace",
        "label": "enum OO_BetHandler.BetStatus",
        "numberOfBytes": "1"
      },
      "t_mapping(t_address,t_array(t_uint256)dyn_storage)": {
        "encoding": "mapping",
        "key": "t_address",
        "label": "mapping(address => uint256[])",
        "numberOfBytes": "32",
        "value": "t_array(t_uint256)dyn_storage"
      },
      "t_mapping(t_uint256,t_struct(Bet)565_storage)": {
        "encoding": "mapping",
        "key": "t_uint256",
        "label": "mapping(uint256 => struct OO_BetHandler.Bet)",
        "numberOfBytes": "32",
        "value": "t_struct(Bet)565_storage"
      },
      "t_mapping(t_uint256,t_struct(BetAmount)578_storage)": {
        "encoding": "mapping",
        "key": "t_uint256",
        "label": "mapping(uint256 => struct OO_BetHandler.BetAmount)",
        "numberOfBytes": "32",
        "value": "t_struct(BetAmount)578_storage"
      },
      "t_struct(Bet)565_storage": {
        "encoding": "inplace",
        "label": "struct OO_BetHandler.Bet",
        "members": [
          {
            "astId": 546,
            "contract": "contracts/OO_BetHandler.sol:OO_BetHandler",
            "label": "betId",
            "offset": 0,
            "slot": "0",
            "type": "t_uint256"
          },
          {
            "astId": 548,
            "contract": "contracts/OO_BetHandler.sol:OO_BetHandler",
            "label": "question",
            "offset": 0,
            "slot": "1",
            "type": "t_bytes_storage"
          },
          {
            "astId": 550,
            "contract": "contracts/OO_BetHandler.sol:OO_BetHandler",
            "label": "expiry",
            "offset": 0,
            "slot": "2",
            "type": "t_uint256"
          },
          {
            "astId": 553,
            "contract": "contracts/OO_BetHandler.sol:OO_BetHandler",
            "label": "bondCurrency",
            "offset": 0,
            "slot": "3",
            "type": "t_contract(IERC20)131"
          },
          {
            "astId": 555,
            "contract": "contracts/OO_BetHandler.sol:OO_BetHandler",
            "label": "creator",
            "offset": 0,
            "slot": "4",
            "type": "t_address"
          },
          {
            "astId": 557,
            "contract": "contracts/OO_BetHandler.sol:OO_BetHandler",
            "label": "privateBet",
            "offset": 20,
            "slot": "4",
            "type": "t_bool"
          },
          {
            "astId": 559,
            "contract": "contracts/OO_BetHandler.sol:OO_BetHandler",
            "label": "liveness",
            "offset": 0,
            "slot": "5",
            "type": "t_uint256"
          },
          {
            "astId": 561,
            "contract": "contracts/OO_BetHandler.sol:OO_BetHandler",
            "label": "imgUrl",
            "offset": 0,
            "slot": "6",
            "type": "t_bytes_storage"
          },
          {
            "astId": 564,
            "contract": "contracts/OO_BetHandler.sol:OO_BetHandler",
            "label": "betStatus",
            "offset": 0,
            "slot": "7",
            "type": "t_enum(BetStatus)586"
          }
        ],
        "numberOfBytes": "256"
      },
      "t_struct(BetAmount)578_storage": {
        "encoding": "inplace",
        "label": "struct OO_BetHandler.BetAmount",
        "members": [
          {
            "astId": 567,
            "contract": "contracts/OO_BetHandler.sol:OO_BetHandler",
            "label": "betId",
            "offset": 0,
            "slot": "0",
            "type": "t_uint256"
          },
          {
            "astId": 569,
            "contract": "contracts/OO_BetHandler.sol:OO_BetHandler",
            "label": "affirmation",
            "offset": 0,
            "slot": "1",
            "type": "t_address"
          },
          {
            "astId": 571,
            "contract": "contracts/OO_BetHandler.sol:OO_BetHandler",
            "label": "affirmationAmount",
            "offset": 0,
            "slot": "2",
            "type": "t_uint256"
          },
          {
            "astId": 573,
            "contract": "contracts/OO_BetHandler.sol:OO_BetHandler",
            "label": "negation",
            "offset": 0,
            "slot": "3",
            "type": "t_address"
          },
          {
            "astId": 575,
            "contract": "contracts/OO_BetHandler.sol:OO_BetHandler",
            "label": "negationAmount",
            "offset": 0,
            "slot": "4",
            "type": "t_uint256"
          },
          {
            "astId": 577,
            "contract": "contracts/OO_BetHandler.sol:OO_BetHandler",
            "label": "reward",
            "offset": 0,
            "slot": "5",
            "type": "t_uint256"
          }
        ],
        "numberOfBytes": "192"
      },
      "t_uint256": {
        "encoding": "inplace",
        "label": "uint256",
        "numberOfBytes": "32"
      }
    }
  }
}