{
  "address": "0x4d954AbddF500966AD58dF99F05Fc37a88F70652",
  "abi": [
    {
      "anonymous": false,
      "inputs": [
        {
          "indexed": true,
          "internalType": "uint256",
          "name": "betId",
          "type": "uint256"
        },
        {
          "indexed": true,
          "internalType": "address",
          "name": "bondCurrency",
          "type": "address"
        },
        {
          "indexed": true,
          "internalType": "uint256",
          "name": "refundAmount",
          "type": "uint256"
        }
      ],
      "name": "BetCanceled",
      "type": "event"
    },
    {
      "anonymous": false,
      "inputs": [
        {
          "indexed": true,
          "internalType": "uint256",
          "name": "betId",
          "type": "uint256"
        },
        {
          "indexed": true,
          "internalType": "uint256",
          "name": "affirmationRefund",
          "type": "uint256"
        },
        {
          "indexed": true,
          "internalType": "uint256",
          "name": "negationRefund",
          "type": "uint256"
        }
      ],
      "name": "BetKilled",
      "type": "event"
    },
    {
      "anonymous": false,
      "inputs": [
        {
          "indexed": true,
          "internalType": "address",
          "name": "creator",
          "type": "address"
        },
        {
          "indexed": true,
          "internalType": "address",
          "name": "bondCurrency",
          "type": "address"
        },
        {
          "indexed": true,
          "internalType": "bytes",
          "name": "ancillaryData",
          "type": "bytes"
        },
        {
          "indexed": false,
          "internalType": "uint256",
          "name": "betId",
          "type": "uint256"
        }
      ],
      "name": "BetSet",
      "type": "event"
    },
    {
      "anonymous": false,
      "inputs": [
        {
          "indexed": true,
          "internalType": "address",
          "name": "affirmation",
          "type": "address"
        },
        {
          "indexed": true,
          "internalType": "address",
          "name": "negation",
          "type": "address"
        },
        {
          "indexed": true,
          "internalType": "uint256",
          "name": "betId",
          "type": "uint256"
        }
      ],
      "name": "BetSettled",
      "type": "event"
    },
    {
      "anonymous": false,
      "inputs": [
        {
          "indexed": true,
          "internalType": "address",
          "name": "taker",
          "type": "address"
        },
        {
          "indexed": true,
          "internalType": "uint256",
          "name": "betId",
          "type": "uint256"
        }
      ],
      "name": "BetTaken",
      "type": "event"
    },
    {
      "anonymous": false,
      "inputs": [
        {
          "indexed": true,
          "internalType": "address",
          "name": "affirmation",
          "type": "address"
        },
        {
          "indexed": true,
          "internalType": "address",
          "name": "negation",
          "type": "address"
        },
        {
          "indexed": true,
          "internalType": "uint256",
          "name": "betId",
          "type": "uint256"
        }
      ],
      "name": "DataRequested",
      "type": "event"
    },
    {
      "anonymous": false,
      "inputs": [
        {
          "indexed": true,
          "internalType": "uint256",
          "name": "betId",
          "type": "uint256"
        },
        {
          "indexed": true,
          "internalType": "uint256",
          "name": "totalWinnings",
          "type": "uint256"
        },
        {
          "indexed": true,
          "internalType": "int256",
          "name": "winner",
          "type": "int256"
        }
      ],
      "name": "WinningsClaimed",
      "type": "event"
    },
    {
      "inputs": [],
      "name": "betId",
      "outputs": [
        {
          "internalType": "uint256",
          "name": "",
          "type": "uint256"
        }
      ],
      "stateMutability": "view",
      "type": "function"
    },
    {
      "inputs": [
        {
          "internalType": "uint256",
          "name": "",
          "type": "uint256"
        }
      ],
      "name": "bets",
      "outputs": [
        {
          "internalType": "bytes",
          "name": "question",
          "type": "bytes"
        },
        {
          "internalType": "contract IERC20",
          "name": "bondCurrency",
          "type": "address"
        },
        {
          "internalType": "uint256",
          "name": "reward",
          "type": "uint256"
        },
        {
          "internalType": "uint256",
          "name": "liveness",
          "type": "uint256"
        },
        {
          "internalType": "address",
          "name": "creator",
          "type": "address"
        },
        {
          "internalType": "bool",
          "name": "privateBet",
          "type": "bool"
        },
        {
          "internalType": "address",
          "name": "affirmation",
          "type": "address"
        },
        {
          "internalType": "uint256",
          "name": "affirmationAmount",
          "type": "uint256"
        },
        {
          "internalType": "address",
          "name": "negation",
          "type": "address"
        },
        {
          "internalType": "uint256",
          "name": "negationAmount",
          "type": "uint256"
        },
        {
          "internalType": "uint256",
          "name": "betId",
          "type": "uint256"
        },
        {
          "internalType": "enum OO_BetHandler.BetStatus",
          "name": "betStatus",
          "type": "uint8"
        }
      ],
      "stateMutability": "view",
      "type": "function"
    },
    {
      "inputs": [
        {
          "internalType": "uint256",
          "name": "_betId",
          "type": "uint256"
        }
      ],
      "name": "cancelBet",
      "outputs": [],
      "stateMutability": "nonpayable",
      "type": "function"
    },
    {
      "inputs": [
        {
          "internalType": "uint256",
          "name": "_betId",
          "type": "uint256"
        }
      ],
      "name": "claimWinnings",
      "outputs": [],
      "stateMutability": "nonpayable",
      "type": "function"
    },
    {
      "inputs": [
        {
          "internalType": "string",
          "name": "_question",
          "type": "string"
        }
      ],
      "name": "createQuestion",
      "outputs": [
        {
          "internalType": "bytes",
          "name": "",
          "type": "bytes"
        }
      ],
      "stateMutability": "pure",
      "type": "function"
    },
    {
      "inputs": [
        {
          "internalType": "uint256",
          "name": "_betId",
          "type": "uint256"
        }
      ],
      "name": "getSettledData",
      "outputs": [
        {
          "internalType": "int256",
          "name": "",
          "type": "int256"
        }
      ],
      "stateMutability": "view",
      "type": "function"
    },
    {
      "inputs": [
        {
          "internalType": "uint256",
          "name": "_betId",
          "type": "uint256"
        }
      ],
      "name": "killBet",
      "outputs": [],
      "stateMutability": "nonpayable",
      "type": "function"
    },
    {
      "inputs": [
        {
          "internalType": "uint256",
          "name": "_betId",
          "type": "uint256"
        }
      ],
      "name": "requestData",
      "outputs": [],
      "stateMutability": "nonpayable",
      "type": "function"
    },
    {
      "inputs": [
        {
          "internalType": "string",
          "name": "_question",
          "type": "string"
        },
        {
          "internalType": "address",
          "name": "_bondCurrency",
          "type": "address"
        },
        {
          "internalType": "uint256",
          "name": "_reward",
          "type": "uint256"
        },
        {
          "internalType": "uint256",
          "name": "_liveness",
          "type": "uint256"
        },
        {
          "internalType": "bool",
          "name": "_privateBet",
          "type": "bool"
        },
        {
          "internalType": "address",
          "name": "_privateBetRecipient",
          "type": "address"
        },
        {
          "internalType": "bool",
          "name": "_affirmation",
          "type": "bool"
        },
        {
          "internalType": "uint256",
          "name": "_betAmount",
          "type": "uint256"
        },
        {
          "internalType": "uint256",
          "name": "_counterBetAmount",
          "type": "uint256"
        }
      ],
      "name": "setBet",
      "outputs": [],
      "stateMutability": "nonpayable",
      "type": "function"
    },
    {
      "inputs": [
        {
          "internalType": "uint256",
          "name": "_betId",
          "type": "uint256"
        }
      ],
      "name": "settleRequest",
      "outputs": [],
      "stateMutability": "nonpayable",
      "type": "function"
    },
    {
      "inputs": [
        {
          "internalType": "uint256",
          "name": "_betId",
          "type": "uint256"
        }
      ],
      "name": "takeBet",
      "outputs": [],
      "stateMutability": "nonpayable",
      "type": "function"
    },
    {
      "inputs": [
        {
          "internalType": "address",
          "name": "",
          "type": "address"
        },
        {
          "internalType": "uint256",
          "name": "",
          "type": "uint256"
        }
      ],
      "name": "userBets",
      "outputs": [
        {
          "internalType": "uint256",
          "name": "",
          "type": "uint256"
        }
      ],
      "stateMutability": "view",
      "type": "function"
    }
  ],
  "transactionHash": "0x0c3ab18ca9c8ca603b14605ed3b5b0bc62a597b48657a2b50dd352bdc283a110",
  "args": [],
  "numDeployments": 4,
  "solcInputHash": "7dc83037875bc6235dc25a5626f243df",
  "bytecode": "0x608060405273a5b9d8a0b0fa04ba71bdd68069661ed5c0848884600160006101000a81548173ffffffffffffffffffffffffffffffffffffffff021916908373ffffffffffffffffffffffffffffffffffffffff1602179055506000600255600060035534801561006f57600080fd5b506001600081905550613f5e806100876000396000f3fe608060405234801561001057600080fd5b50600436106100b45760003560e01c80638068aa68116100715780638068aa6814610182578063b3580c1e146101b2578063c511a074146101e2578063d247f92b146101fe578063dc60054e1461021a578063e5da66af14610236576100b4565b80630de2f6ba146100b957806322af00fa146100d557806327bce91b146101105780632adb9e3c1461012e578063357401f51461014a578063677bd9ff14610166575b600080fd5b6100d360048036038101906100ce9190612947565b610266565b005b6100ef60048036038101906100ea9190612a32565b61089d565b6040516101079c9b9a99989796959493929190612bf2565b60405180910390f35b610118610a1f565b6040516101259190612cb3565b60405180910390f35b61014860048036038101906101439190612a32565b610a25565b005b610164600480360381019061015f9190612a32565b610e97565b005b610180600480360381019061017b9190612a32565b6111d6565b005b61019c60048036038101906101979190612cce565b61174d565b6040516101a99190612cb3565b60405180910390f35b6101cc60048036038101906101c79190612e3e565b61177e565b6040516101d99190612e87565b60405180910390f35b6101fc60048036038101906101f79190612a32565b6117ad565b005b61021860048036038101906102139190612a32565b611e31565b005b610234600480360381019061022f9190612a32565b6121a7565b005b610250600480360381019061024b9190612a32565b6125d1565b60405161025d9190612ec2565b60405180910390f35b6002600054036102ab576040517f08c379a00000000000000000000000000000000000000000000000000000000081526004016102a290612f3a565b60405180910390fd5b60026000819055508373ffffffffffffffffffffffffffffffffffffffff163373ffffffffffffffffffffffffffffffffffffffff1603610321576040517f08c379a000000000000000000000000000000000000000000000000000000000815260040161031890612fa6565b60405180910390fd5b600115158515150361039d57600073ffffffffffffffffffffffffffffffffffffffff168473ffffffffffffffffffffffffffffffffffffffff160361039c576040517f08c379a000000000000000000000000000000000000000000000000000000000815260040161039390613038565b60405180910390fd5b5b60006103ec8b8b8080601f016020809104026020016040519081016040528093929190818152602001838380828437600081840152601f19601f8201169050808301925050505050505061177e565b9050600089905060008060008060011515891515036104135733935087925086905061041d565b3391508790508692505b600115158b15150361046c573373ffffffffffffffffffffffffffffffffffffffff168473ffffffffffffffffffffffffffffffffffffffff1614610465578993508361046a565b899150815b505b60006040518061018001604052808881526020018773ffffffffffffffffffffffffffffffffffffffff1681526020018f81526020018e81526020013373ffffffffffffffffffffffffffffffffffffffff1681526020018d151581526020018673ffffffffffffffffffffffffffffffffffffffff1681526020018581526020018473ffffffffffffffffffffffffffffffffffffffff16815260200183815260200160035481526020016000600581111561052c5761052b612b7b565b5b81525090508573ffffffffffffffffffffffffffffffffffffffff166323b872dd33308c6040518463ffffffff1660e01b815260040161056e93929190613058565b6020604051808303816000875af115801561058d573d6000803e3d6000fd5b505050506040513d601f19601f820116820180604052508101906105b191906130a4565b50866040516105c0919061310d565b60405180910390208f73ffffffffffffffffffffffffffffffffffffffff163373ffffffffffffffffffffffffffffffffffffffff167f312377a74e3b2d3c110c0a87dc9a32bdfe8152f1163bc6ebbf8549394889ddfd6003546040516106279190612cb3565b60405180910390a480600460006003548152602001908152602001600020600082015181600001908161065a9190613326565b5060208201518160010160006101000a81548173ffffffffffffffffffffffffffffffffffffffff021916908373ffffffffffffffffffffffffffffffffffffffff160217905550604082015181600201556060820151816003015560808201518160040160006101000a81548173ffffffffffffffffffffffffffffffffffffffff021916908373ffffffffffffffffffffffffffffffffffffffff16021790555060a08201518160040160146101000a81548160ff02191690831515021790555060c08201518160050160006101000a81548173ffffffffffffffffffffffffffffffffffffffff021916908373ffffffffffffffffffffffffffffffffffffffff16021790555060e082015181600601556101008201518160070160006101000a81548173ffffffffffffffffffffffffffffffffffffffff021916908373ffffffffffffffffffffffffffffffffffffffff1602179055506101208201518160080155610140820151816009015561016082015181600a0160006101000a81548160ff021916908360058111156107f8576107f7612b7b565b5b0217905550905050600560003373ffffffffffffffffffffffffffffffffffffffff1673ffffffffffffffffffffffffffffffffffffffff168152602001908152602001600020600354908060018154018082558091505060019003906000526020600020016000909190919091505560016003600082825461087b9190613427565b9250508190555050505050505050600160008190555050505050505050505050565b60046020528060005260406000206000915090508060000180546108c090613153565b80601f01602080910402602001604051908101604052809291908181526020018280546108ec90613153565b80156109395780601f1061090e57610100808354040283529160200191610939565b820191906000526020600020905b81548152906001019060200180831161091c57829003601f168201915b5050505050908060010160009054906101000a900473ffffffffffffffffffffffffffffffffffffffff16908060020154908060030154908060040160009054906101000a900473ffffffffffffffffffffffffffffffffffffffff16908060040160149054906101000a900460ff16908060050160009054906101000a900473ffffffffffffffffffffffffffffffffffffffff16908060060154908060070160009054906101000a900473ffffffffffffffffffffffffffffffffffffffff169080600801549080600901549080600a0160009054906101000a900460ff1690508c565b60035481565b600060046000838152602001908152602001600020905060016005811115610a5057610a4f612b7b565b5b81600a0160009054906101000a900460ff166005811115610a7457610a73612b7b565b5b14610ab4576040517f08c379a0000000000000000000000000000000000000000000000000000000008152600401610aab906134a7565b60405180910390fd5b3373ffffffffffffffffffffffffffffffffffffffff168160050160009054906101000a900473ffffffffffffffffffffffffffffffffffffffff1673ffffffffffffffffffffffffffffffffffffffff161480610b6157503373ffffffffffffffffffffffffffffffffffffffff168160070160009054906101000a900473ffffffffffffffffffffffffffffffffffffffff1673ffffffffffffffffffffffffffffffffffffffff16145b610b6a57600080fd5b6000816000018054610b7b90613153565b80601f0160208091040260200160405190810160405280929190818152602001828054610ba790613153565b8015610bf45780601f10610bc957610100808354040283529160200191610bf4565b820191906000526020600020905b815481529060010190602001808311610bd757829003601f168201915b505050505090504260028190555060008260010160009054906101000a900473ffffffffffffffffffffffffffffffffffffffff169050600083600201549050600084600301549050600160009054906101000a900473ffffffffffffffffffffffffffffffffffffffff1673ffffffffffffffffffffffffffffffffffffffff166311df92f17f5945535f4f525f4e4f5f515545525900000000000000000000000000000000006002548787876040518663ffffffff1660e01b8152600401610cc29594939291906134e0565b6020604051808303816000875af1158015610ce1573d6000803e3d6000fd5b505050506040513d601f19601f82011682018060405250810190610d05919061354f565b50600160009054906101000a900473ffffffffffffffffffffffffffffffffffffffff1673ffffffffffffffffffffffffffffffffffffffff1663473c45fe7f5945535f4f525f4e4f5f5155455259000000000000000000000000000000000060025487856040518563ffffffff1660e01b8152600401610d89949392919061357c565b600060405180830381600087803b158015610da357600080fd5b505af1158015610db7573d6000803e3d6000fd5b50505050600285600a0160006101000a81548160ff02191690836005811115610de357610de2612b7b565b5b021790555084600901548560070160009054906101000a900473ffffffffffffffffffffffffffffffffffffffff1673ffffffffffffffffffffffffffffffffffffffff168660050160009054906101000a900473ffffffffffffffffffffffffffffffffffffffff1673ffffffffffffffffffffffffffffffffffffffff167f5fbd3f9d4c5b040345228923c9c25c84eaec691ee1219afc5f1d32caec1533ee60405160405180910390a4505050505050565b600260005403610edc576040517f08c379a0000000000000000000000000000000000000000000000000000000008152600401610ed390612f3a565b60405180910390fd5b600260008190555060006004600083815260200190815260200160002090506000806005811115610f1057610f0f612b7b565b5b82600a0160009054906101000a900460ff166005811115610f3457610f33612b7b565b5b14610f74576040517f08c379a0000000000000000000000000000000000000000000000000000000008152600401610f6b90613614565b60405180910390fd5b8160040160009054906101000a900473ffffffffffffffffffffffffffffffffffffffff1673ffffffffffffffffffffffffffffffffffffffff163373ffffffffffffffffffffffffffffffffffffffff1614611006576040517f08c379a0000000000000000000000000000000000000000000000000000000008152600401610ffd90613680565b60405180910390fd5b8160050160009054906101000a900473ffffffffffffffffffffffffffffffffffffffff1673ffffffffffffffffffffffffffffffffffffffff168260040160009054906101000a900473ffffffffffffffffffffffffffffffffffffffff1673ffffffffffffffffffffffffffffffffffffffff160361108d5781600601549050611095565b816008015490505b8160010160009054906101000a900473ffffffffffffffffffffffffffffffffffffffff1673ffffffffffffffffffffffffffffffffffffffff1663a9059cbb8360040160009054906101000a900473ffffffffffffffffffffffffffffffffffffffff16836040518363ffffffff1660e01b81526004016111189291906136a0565b6020604051808303816000875af1158015611137573d6000803e3d6000fd5b505050506040513d601f19601f8201168201806040525081019061115b91906130a4565b50808260010160009054906101000a900473ffffffffffffffffffffffffffffffffffffffff1673ffffffffffffffffffffffffffffffffffffffff1683600901547ff17ce20c49b8c306870d5fe42f4badc29fd4c720a2c6a41dd2942f0cd8e77c3560405160405180910390a45050600160008190555050565b60026000540361121b576040517f08c379a000000000000000000000000000000000000000000000000000000000815260040161121290612f3a565b60405180910390fd5b600260008190555060006004600083815260200190815260200160002090506000816008015482600601546112509190613427565b9050600061125d846125d1565b90506003600581111561127357611272612b7b565b5b83600a0160009054906101000a900460ff16600581111561129757611296612b7b565b5b146112d7576040517f08c379a00000000000000000000000000000000000000000000000000000000081526004016112ce90613715565b60405180910390fd5b8260050160009054906101000a900473ffffffffffffffffffffffffffffffffffffffff1673ffffffffffffffffffffffffffffffffffffffff163373ffffffffffffffffffffffffffffffffffffffff16148061138457508260070160009054906101000a900473ffffffffffffffffffffffffffffffffffffffff1673ffffffffffffffffffffffffffffffffffffffff163373ffffffffffffffffffffffffffffffffffffffff16145b6113c3576040517f08c379a00000000000000000000000000000000000000000000000000000000081526004016113ba90613781565b60405180910390fd5b670de0b6b3a76400008114806113d95750600081145b611418576040517f08c379a000000000000000000000000000000000000000000000000000000000815260040161140f906137ed565b60405180910390fd5b670de0b6b3a76400008103611585578260050160009054906101000a900473ffffffffffffffffffffffffffffffffffffffff1673ffffffffffffffffffffffffffffffffffffffff163373ffffffffffffffffffffffffffffffffffffffff16146114b9576040517f08c379a00000000000000000000000000000000000000000000000000000000081526004016114b090613859565b60405180910390fd5b8260010160009054906101000a900473ffffffffffffffffffffffffffffffffffffffff1673ffffffffffffffffffffffffffffffffffffffff1663a9059cbb8460050160009054906101000a900473ffffffffffffffffffffffffffffffffffffffff16846040518363ffffffff1660e01b815260040161153c9291906136a0565b6020604051808303816000875af115801561155b573d6000803e3d6000fd5b505050506040513d601f19601f8201168201806040525081019061157f91906130a4565b506116df565b8260070160009054906101000a900473ffffffffffffffffffffffffffffffffffffffff1673ffffffffffffffffffffffffffffffffffffffff163373ffffffffffffffffffffffffffffffffffffffff1614611617576040517f08c379a000000000000000000000000000000000000000000000000000000000815260040161160e906138c5565b60405180910390fd5b8260010160009054906101000a900473ffffffffffffffffffffffffffffffffffffffff1673ffffffffffffffffffffffffffffffffffffffff1663a9059cbb8460070160009054906101000a900473ffffffffffffffffffffffffffffffffffffffff16846040518363ffffffff1660e01b815260040161169a9291906136a0565b6020604051808303816000875af11580156116b9573d6000803e3d6000fd5b505050506040513d601f19601f820116820180604052508101906116dd91906130a4565b505b600483600a0160006101000a81548160ff0219169083600581111561170757611706612b7b565b5b0217905550808284600901547f709206e7f06feafb753d2514917296d705b6de50ca1ce52acb5d16c19efc95b660405160405180910390a4505050600160008190555050565b6005602052816000526040600020818154811061176957600080fd5b90600052602060002001600091509150505481565b606060008260405160200161179391906139c4565b604051602081830303815290604052905080915050919050565b6002600054036117f2576040517f08c379a00000000000000000000000000000000000000000000000000000000081526004016117e990612f3a565b60405180910390fd5b600260008190555060006004600083815260200190815260200160002090508060040160009054906101000a900473ffffffffffffffffffffffffffffffffffffffff1673ffffffffffffffffffffffffffffffffffffffff163373ffffffffffffffffffffffffffffffffffffffff16036118a3576040517f08c379a000000000000000000000000000000000000000000000000000000000815260040161189a90613a41565b60405180910390fd5b600015158160040160149054906101000a900460ff161515036119b357600073ffffffffffffffffffffffffffffffffffffffff168160050160009054906101000a900473ffffffffffffffffffffffffffffffffffffffff1673ffffffffffffffffffffffffffffffffffffffff16148061196f5750600073ffffffffffffffffffffffffffffffffffffffff168160070160009054906101000a900473ffffffffffffffffffffffffffffffffffffffff1673ffffffffffffffffffffffffffffffffffffffff16145b6119ae576040517f08c379a00000000000000000000000000000000000000000000000000000000081526004016119a590613aad565b60405180910390fd5b611aa0565b8060050160009054906101000a900473ffffffffffffffffffffffffffffffffffffffff1673ffffffffffffffffffffffffffffffffffffffff163373ffffffffffffffffffffffffffffffffffffffff161480611a6057508060070160009054906101000a900473ffffffffffffffffffffffffffffffffffffffff1673ffffffffffffffffffffffffffffffffffffffff163373ffffffffffffffffffffffffffffffffffffffff16145b611a9f576040517f08c379a0000000000000000000000000000000000000000000000000000000008152600401611a9690613b19565b60405180910390fd5b5b60006005811115611ab457611ab3612b7b565b5b81600a0160009054906101000a900460ff166005811115611ad857611ad7612b7b565b5b14611b18576040517f08c379a0000000000000000000000000000000000000000000000000000000008152600401611b0f90613b85565b60405180910390fd5b600073ffffffffffffffffffffffffffffffffffffffff168160050160009054906101000a900473ffffffffffffffffffffffffffffffffffffffff1673ffffffffffffffffffffffffffffffffffffffff1603611c61578060010160009054906101000a900473ffffffffffffffffffffffffffffffffffffffff1673ffffffffffffffffffffffffffffffffffffffff166323b872dd333084600601546040518463ffffffff1660e01b8152600401611bd593929190613058565b6020604051808303816000875af1158015611bf4573d6000803e3d6000fd5b505050506040513d601f19601f82011682018060405250810190611c1891906130a4565b50338160050160006101000a81548173ffffffffffffffffffffffffffffffffffffffff021916908373ffffffffffffffffffffffffffffffffffffffff160217905550611d4e565b8060010160009054906101000a900473ffffffffffffffffffffffffffffffffffffffff1673ffffffffffffffffffffffffffffffffffffffff166323b872dd333084600801546040518463ffffffff1660e01b8152600401611cc693929190613058565b6020604051808303816000875af1158015611ce5573d6000803e3d6000fd5b505050506040513d601f19601f82011682018060405250810190611d0991906130a4565b50338160070160006101000a81548173ffffffffffffffffffffffffffffffffffffffff021916908373ffffffffffffffffffffffffffffffffffffffff1602179055505b600560003373ffffffffffffffffffffffffffffffffffffffff1673ffffffffffffffffffffffffffffffffffffffff168152602001908152602001600020829080600181540180825580915050600190039060005260206000200160009091909190915055600181600a0160006101000a81548160ff02191690836005811115611ddc57611ddb612b7b565b5b0217905550813373ffffffffffffffffffffffffffffffffffffffff167f7ed1ee25a0f4816f901eaf4400ccb456dde0d54382927ffb9a58123e9fabc2e960405160405180910390a350600160008190555050565b600060046000838152602001908152602001600020905060026005811115611e5c57611e5b612b7b565b5b81600a0160009054906101000a900460ff166005811115611e8057611e7f612b7b565b5b14611ec0576040517f08c379a0000000000000000000000000000000000000000000000000000000008152600401611eb790613bf1565b60405180910390fd5b3373ffffffffffffffffffffffffffffffffffffffff168160050160009054906101000a900473ffffffffffffffffffffffffffffffffffffffff1673ffffffffffffffffffffffffffffffffffffffff161480611f6d57503373ffffffffffffffffffffffffffffffffffffffff168160070160009054906101000a900473ffffffffffffffffffffffffffffffffffffffff1673ffffffffffffffffffffffffffffffffffffffff16145b611f7657600080fd5b6000816000018054611f8790613153565b80601f0160208091040260200160405190810160405280929190818152602001828054611fb390613153565b80156120005780601f10611fd557610100808354040283529160200191612000565b820191906000526020600020905b815481529060010190602001808311611fe357829003601f168201915b50505050509050600160009054906101000a900473ffffffffffffffffffffffffffffffffffffffff1673ffffffffffffffffffffffffffffffffffffffff16635e9a79a9307f5945535f4f525f4e4f5f51554552590000000000000000000000000000000000600254856040518563ffffffff1660e01b815260040161208a9493929190613c11565b6020604051808303816000875af11580156120a9573d6000803e3d6000fd5b505050506040513d601f19601f820116820180604052508101906120cd919061354f565b50600382600a0160006101000a81548160ff021916908360058111156120f6576120f5612b7b565b5b021790555081600901548260070160009054906101000a900473ffffffffffffffffffffffffffffffffffffffff1673ffffffffffffffffffffffffffffffffffffffff168360050160009054906101000a900473ffffffffffffffffffffffffffffffffffffffff1673ffffffffffffffffffffffffffffffffffffffff167fdbcd882d372171aa04f1d1af4b104cb44e653afc5e0e24f66d1750aeaffd9fec60405160405180910390a4505050565b6002600054036121ec576040517f08c379a00000000000000000000000000000000000000000000000000000000081526004016121e390612f3a565b60405180910390fd5b600260008190555060006004600083815260200190815260200160002090506000612216836125d1565b90506003600581111561222c5761222b612b7b565b5b82600a0160009054906101000a900460ff1660058111156122505761224f612b7b565b5b14612290576040517f08c379a000000000000000000000000000000000000000000000000000000000815260040161228790613715565b60405180910390fd5b8160050160009054906101000a900473ffffffffffffffffffffffffffffffffffffffff1673ffffffffffffffffffffffffffffffffffffffff163373ffffffffffffffffffffffffffffffffffffffff16148061233d57508160070160009054906101000a900473ffffffffffffffffffffffffffffffffffffffff1673ffffffffffffffffffffffffffffffffffffffff163373ffffffffffffffffffffffffffffffffffffffff16145b61237c576040517f08c379a000000000000000000000000000000000000000000000000000000000815260040161237390613781565b60405180910390fd5b671bc16d674ec8000081146123c6576040517f08c379a00000000000000000000000000000000000000000000000000000000081526004016123bd90613ca9565b60405180910390fd5b8160010160009054906101000a900473ffffffffffffffffffffffffffffffffffffffff1673ffffffffffffffffffffffffffffffffffffffff1663a9059cbb8360050160009054906101000a900473ffffffffffffffffffffffffffffffffffffffff1684600601546040518363ffffffff1660e01b815260040161244d9291906136a0565b6020604051808303816000875af115801561246c573d6000803e3d6000fd5b505050506040513d601f19601f8201168201806040525081019061249091906130a4565b508160010160009054906101000a900473ffffffffffffffffffffffffffffffffffffffff1673ffffffffffffffffffffffffffffffffffffffff1663a9059cbb8360070160009054906101000a900473ffffffffffffffffffffffffffffffffffffffff1684600801546040518363ffffffff1660e01b81526004016125189291906136a0565b6020604051808303816000875af1158015612537573d6000803e3d6000fd5b505050506040513d601f19601f8201168201806040525081019061255b91906130a4565b50600582600a0160006101000a81548160ff0219169083600581111561258457612583612b7b565b5b02179055508160080154826006015483600901547fec8d8a8188ba892bee2a040ee842eb77c0938d7c08100955525d8f68da30a18260405160405180910390a45050600160008190555050565b6000806004600084815260200190815260200160002090503373ffffffffffffffffffffffffffffffffffffffff168160050160009054906101000a900473ffffffffffffffffffffffffffffffffffffffff1673ffffffffffffffffffffffffffffffffffffffff16148061269657503373ffffffffffffffffffffffffffffffffffffffff168160070160009054906101000a900473ffffffffffffffffffffffffffffffffffffffff1673ffffffffffffffffffffffffffffffffffffffff16145b61269f57600080fd5b60008160000180546126b090613153565b80601f01602080910402602001604051908101604052809291908181526020018280546126dc90613153565b80156127295780601f106126fe57610100808354040283529160200191612729565b820191906000526020600020905b81548152906001019060200180831161270c57829003601f168201915b50505050509050600160009054906101000a900473ffffffffffffffffffffffffffffffffffffffff1673ffffffffffffffffffffffffffffffffffffffff1663a9904f9b307f5945535f4f525f4e4f5f51554552590000000000000000000000000000000000600254856040518563ffffffff1660e01b81526004016127b39493929190613c11565b61020060405180830381865afa1580156127d1573d6000803e3d6000fd5b505050506040513d601f19601f820116820180604052508101906127f59190613efa565b60c0015192505050919050565b6000604051905090565b600080fd5b600080fd5b600080fd5b600080fd5b600080fd5b60008083601f84011261283b5761283a612816565b5b8235905067ffffffffffffffff8111156128585761285761281b565b5b60208301915083600182028301111561287457612873612820565b5b9250929050565b600073ffffffffffffffffffffffffffffffffffffffff82169050919050565b60006128a68261287b565b9050919050565b6128b68161289b565b81146128c157600080fd5b50565b6000813590506128d3816128ad565b92915050565b6000819050919050565b6128ec816128d9565b81146128f757600080fd5b50565b600081359050612909816128e3565b92915050565b60008115159050919050565b6129248161290f565b811461292f57600080fd5b50565b6000813590506129418161291b565b92915050565b6000806000806000806000806000806101208b8d03121561296b5761296a61280c565b5b60008b013567ffffffffffffffff81111561298957612988612811565b5b6129958d828e01612825565b9a509a505060206129a88d828e016128c4565b98505060406129b98d828e016128fa565b97505060606129ca8d828e016128fa565b96505060806129db8d828e01612932565b95505060a06129ec8d828e016128c4565b94505060c06129fd8d828e01612932565b93505060e0612a0e8d828e016128fa565b925050610100612a208d828e016128fa565b9150509295989b9194979a5092959850565b600060208284031215612a4857612a4761280c565b5b6000612a56848285016128fa565b91505092915050565b600081519050919050565b600082825260208201905092915050565b60005b83811015612a99578082015181840152602081019050612a7e565b60008484015250505050565b6000601f19601f8301169050919050565b6000612ac182612a5f565b612acb8185612a6a565b9350612adb818560208601612a7b565b612ae481612aa5565b840191505092915050565b6000819050919050565b6000612b14612b0f612b0a8461287b565b612aef565b61287b565b9050919050565b6000612b2682612af9565b9050919050565b6000612b3882612b1b565b9050919050565b612b4881612b2d565b82525050565b612b57816128d9565b82525050565b612b668161289b565b82525050565b612b758161290f565b82525050565b7f4e487b7100000000000000000000000000000000000000000000000000000000600052602160045260246000fd5b60068110612bbb57612bba612b7b565b5b50565b6000819050612bcc82612baa565b919050565b6000612bdc82612bbe565b9050919050565b612bec81612bd1565b82525050565b6000610180820190508181036000830152612c0d818f612ab6565b9050612c1c602083018e612b3f565b612c29604083018d612b4e565b612c36606083018c612b4e565b612c43608083018b612b5d565b612c5060a083018a612b6c565b612c5d60c0830189612b5d565b612c6a60e0830188612b4e565b612c78610100830187612b5d565b612c86610120830186612b4e565b612c94610140830185612b4e565b612ca2610160830184612be3565b9d9c50505050505050505050505050565b6000602082019050612cc86000830184612b4e565b92915050565b60008060408385031215612ce557612ce461280c565b5b6000612cf3858286016128c4565b9250506020612d04858286016128fa565b9150509250929050565b600080fd5b7f4e487b7100000000000000000000000000000000000000000000000000000000600052604160045260246000fd5b612d4b82612aa5565b810181811067ffffffffffffffff82111715612d6a57612d69612d13565b5b80604052505050565b6000612d7d612802565b9050612d898282612d42565b919050565b600067ffffffffffffffff821115612da957612da8612d13565b5b612db282612aa5565b9050602081019050919050565b82818337600083830152505050565b6000612de1612ddc84612d8e565b612d73565b905082815260208101848484011115612dfd57612dfc612d0e565b5b612e08848285612dbf565b509392505050565b600082601f830112612e2557612e24612816565b5b8135612e35848260208601612dce565b91505092915050565b600060208284031215612e5457612e5361280c565b5b600082013567ffffffffffffffff811115612e7257612e71612811565b5b612e7e84828501612e10565b91505092915050565b60006020820190508181036000830152612ea18184612ab6565b905092915050565b6000819050919050565b612ebc81612ea9565b82525050565b6000602082019050612ed76000830184612eb3565b92915050565b600082825260208201905092915050565b7f5265656e7472616e637947756172643a207265656e7472616e742063616c6c00600082015250565b6000612f24601f83612edd565b9150612f2f82612eee565b602082019050919050565b60006020820190508181036000830152612f5381612f17565b9050919050565b7f43616e27742062657420796f757273656c660000000000000000000000000000600082015250565b6000612f90601283612edd565b9150612f9b82612f5a565b602082019050919050565b60006020820190508181036000830152612fbf81612f83565b9050919050565b7f507269766174652062657473206d75737420686176652061207265636970696560008201527f6e74000000000000000000000000000000000000000000000000000000000000602082015250565b6000613022602283612edd565b915061302d82612fc6565b604082019050919050565b6000602082019050818103600083015261305181613015565b9050919050565b600060608201905061306d6000830186612b5d565b61307a6020830185612b5d565b6130876040830184612b4e565b949350505050565b60008151905061309e8161291b565b92915050565b6000602082840312156130ba576130b961280c565b5b60006130c88482850161308f565b91505092915050565b600081905092915050565b60006130e782612a5f565b6130f181856130d1565b9350613101818560208601612a7b565b80840191505092915050565b600061311982846130dc565b915081905092915050565b7f4e487b7100000000000000000000000000000000000000000000000000000000600052602260045260246000fd5b6000600282049050600182168061316b57607f821691505b60208210810361317e5761317d613124565b5b50919050565b60008190508160005260206000209050919050565b60006020601f8301049050919050565b600082821b905092915050565b6000600883026131e67fffffffffffffffffffffffffffffffffffffffffffffffffffffffffffffffff826131a9565b6131f086836131a9565b95508019841693508086168417925050509392505050565b600061322361321e613219846128d9565b612aef565b6128d9565b9050919050565b6000819050919050565b61323d83613208565b6132516132498261322a565b8484546131b6565b825550505050565b600090565b613266613259565b613271818484613234565b505050565b5b818110156132955761328a60008261325e565b600181019050613277565b5050565b601f8211156132da576132ab81613184565b6132b484613199565b810160208510156132c3578190505b6132d76132cf85613199565b830182613276565b50505b505050565b600082821c905092915050565b60006132fd600019846008026132df565b1980831691505092915050565b600061331683836132ec565b9150826002028217905092915050565b61332f82612a5f565b67ffffffffffffffff81111561334857613347612d13565b5b6133528254613153565b61335d828285613299565b600060209050601f831160018114613390576000841561337e578287015190505b613388858261330a565b8655506133f0565b601f19841661339e86613184565b60005b828110156133c6578489015182556001820191506020850194506020810190506133a1565b868310156133e357848901516133df601f8916826132ec565b8355505b6001600288020188555050505b505050505050565b7f4e487b7100000000000000000000000000000000000000000000000000000000600052601160045260246000fd5b6000613432826128d9565b915061343d836128d9565b9250828201905080821115613455576134546133f8565b5b92915050565b7f426574206e6f7420726561647920746f20626520736574746c65640000000000600082015250565b6000613491601b83612edd565b915061349c8261345b565b602082019050919050565b600060208201905081810360008301526134c081613484565b9050919050565b6000819050919050565b6134da816134c7565b82525050565b600060a0820190506134f560008301886134d1565b6135026020830187612b4e565b81810360408301526135148186612ab6565b90506135236060830185612b3f565b6135306080830184612b4e565b9695505050505050565b600081519050613549816128e3565b92915050565b6000602082840312156135655761356461280c565b5b60006135738482850161353a565b91505092915050565b600060808201905061359160008301876134d1565b61359e6020830186612b4e565b81810360408301526135b08185612ab6565b90506135bf6060830184612b4e565b95945050505050565b7f42657420616c7265616479206163746976650000000000000000000000000000600082015250565b60006135fe601283612edd565b9150613609826135c8565b602082019050919050565b6000602082019050818103600083015261362d816135f1565b9050919050565b7f4e6f74206265742063726561746f720000000000000000000000000000000000600082015250565b600061366a600f83612edd565b915061367582613634565b602082019050919050565b600060208201905081810360008301526136998161365d565b9050919050565b60006040820190506136b56000830185612b5d565b6136c26020830184612b4e565b9392505050565b7f426574206e6f742079657420736574746c656400000000000000000000000000600082015250565b60006136ff601383612edd565b915061370a826136c9565b602082019050919050565b6000602082019050818103600083015261372e816136f2565b9050919050565b7f54686973206973206e6f7420796f757220626574000000000000000000000000600082015250565b600061376b601483612edd565b915061377682613735565b602082019050919050565b6000602082019050818103600083015261379a8161375e565b9050919050565b7f496e76616c696420736574746c656d656e740000000000000000000000000000600082015250565b60006137d7601283612edd565b91506137e2826137a1565b602082019050919050565b60006020820190508181036000830152613806816137ca565b9050919050565b7f4e65676174696f6e20646964206e6f742077696e206265740000000000000000600082015250565b6000613843601883612edd565b915061384e8261380d565b602082019050919050565b6000602082019050818103600083015261387281613836565b9050919050565b7f41666669726d6174696f6e20646964206e6f742077696e206265740000000000600082015250565b60006138af601b83612edd565b91506138ba82613879565b602082019050919050565b600060208201905081810360008301526138de816138a2565b9050919050565b7f513a200000000000000000000000000000000000000000000000000000000000815250565b600081519050919050565b600081905092915050565b600061392c8261390b565b6139368185613916565b9350613946818560208601612a7b565b80840191505092915050565b7f3f202d2d2d20413a3120666f72207965732e203020666f72206e6f2e2032206660008201527f6f7220616d626967756f75732f756e6b6e6f7761626c65000000000000000000602082015250565b60006139ae603783613916565b91506139b982613952565b603782019050919050565b60006139cf826138e5565b6003820191506139df8284613921565b91506139ea826139a1565b915081905092915050565b7f43616e27742074616b6520796f7572206f776e20626574000000000000000000600082015250565b6000613a2b601783612edd565b9150613a36826139f5565b602082019050919050565b60006020820190508181036000830152613a5a81613a1e565b9050919050565b7f42657420616c72656164792074616b656e000000000000000000000000000000600082015250565b6000613a97601183612edd565b9150613aa282613a61565b602082019050919050565b60006020820190508181036000830152613ac681613a8a565b9050919050565b7f4e6f742062657420726563697069656e74000000000000000000000000000000600082015250565b6000613b03601183612edd565b9150613b0e82613acd565b602082019050919050565b60006020820190508181036000830152613b3281613af6565b9050919050565b7f426574206e6f74204f70656e0000000000000000000000000000000000000000600082015250565b6000613b6f600c83612edd565b9150613b7a82613b39565b602082019050919050565b60006020820190508181036000830152613b9e81613b62565b9050919050565b7f426574206e6f7420736574746c696e6700000000000000000000000000000000600082015250565b6000613bdb601083612edd565b9150613be682613ba5565b602082019050919050565b60006020820190508181036000830152613c0a81613bce565b9050919050565b6000608082019050613c266000830187612b5d565b613c3360208301866134d1565b613c406040830185612b4e565b8181036060830152613c528184612ab6565b905095945050505050565b7f42657420697320736574746c6561626c65000000000000000000000000000000600082015250565b6000613c93601183612edd565b9150613c9e82613c5d565b602082019050919050565b60006020820190508181036000830152613cc281613c86565b9050919050565b600080fd5b600081519050613cdd816128ad565b92915050565b6000613cee8261289b565b9050919050565b613cfe81613ce3565b8114613d0957600080fd5b50565b600081519050613d1b81613cf5565b92915050565b600060e08284031215613d3757613d36613cc9565b5b613d4160e0612d73565b90506000613d518482850161308f565b6000830152506020613d658482850161308f565b6020830152506040613d798482850161308f565b6040830152506060613d8d8482850161308f565b6060830152506080613da18482850161308f565b60808301525060a0613db58482850161353a565b60a08301525060c0613dc98482850161353a565b60c08301525092915050565b613dde81612ea9565b8114613de957600080fd5b50565b600081519050613dfb81613dd5565b92915050565b60006102008284031215613e1857613e17613cc9565b5b613e23610140612d73565b90506000613e3384828501613cce565b6000830152506020613e4784828501613cce565b6020830152506040613e5b84828501613d0c565b6040830152506060613e6f8482850161308f565b6060830152506080613e8384828501613d21565b608083015250610160613e9884828501613dec565b60a083015250610180613ead84828501613dec565b60c0830152506101a0613ec28482850161353a565b60e0830152506101c0613ed78482850161353a565b610100830152506101e0613eed8482850161353a565b6101208301525092915050565b60006102008284031215613f1157613f1061280c565b5b6000613f1f84828501613e01565b9150509291505056fea2646970667358221220f8d23dcf1d602a751718c424accfce3cca8654e80355fee91b53b6db9890757b64736f6c63430008100033",
  "devdoc": {
    "kind": "dev",
    "methods": {},
    "version": 1
  },
  "userdoc": {
    "kind": "user",
    "methods": {},
    "version": 1
  },
  "storageLayout": {
    "storage": [
      {
        "astId": 10,
        "contract": "contracts/OO_BetHandler.sol:OO_BetHandler",
        "label": "_status",
        "offset": 0,
        "slot": "0",
        "type": "t_uint256"
      },
      {
        "astId": 515,
        "contract": "contracts/OO_BetHandler.sol:OO_BetHandler",
        "label": "oo",
        "offset": 0,
        "slot": "1",
        "type": "t_contract(OptimisticOracleV2Interface)503"
      },
      {
        "astId": 518,
        "contract": "contracts/OO_BetHandler.sol:OO_BetHandler",
        "label": "requestTime",
        "offset": 0,
        "slot": "2",
        "type": "t_uint256"
      },
      {
        "astId": 623,
        "contract": "contracts/OO_BetHandler.sol:OO_BetHandler",
        "label": "betId",
        "offset": 0,
        "slot": "3",
        "type": "t_uint256"
      },
      {
        "astId": 628,
        "contract": "contracts/OO_BetHandler.sol:OO_BetHandler",
        "label": "bets",
        "offset": 0,
        "slot": "4",
        "type": "t_mapping(t_uint256,t_struct(Bet)557_storage)"
      },
      {
        "astId": 633,
        "contract": "contracts/OO_BetHandler.sol:OO_BetHandler",
        "label": "userBets",
        "offset": 0,
        "slot": "5",
        "type": "t_mapping(t_address,t_array(t_uint256)dyn_storage)"
      }
    ],
    "types": {
      "t_address": {
        "encoding": "inplace",
        "label": "address",
        "numberOfBytes": "20"
      },
      "t_array(t_uint256)dyn_storage": {
        "base": "t_uint256",
        "encoding": "dynamic_array",
        "label": "uint256[]",
        "numberOfBytes": "32"
      },
      "t_bool": {
        "encoding": "inplace",
        "label": "bool",
        "numberOfBytes": "1"
      },
      "t_bytes_storage": {
        "encoding": "bytes",
        "label": "bytes",
        "numberOfBytes": "32"
      },
      "t_contract(IERC20)117": {
        "encoding": "inplace",
        "label": "contract IERC20",
        "numberOfBytes": "20"
      },
      "t_contract(OptimisticOracleV2Interface)503": {
        "encoding": "inplace",
        "label": "contract OptimisticOracleV2Interface",
        "numberOfBytes": "20"
      },
      "t_enum(BetStatus)564": {
        "encoding": "inplace",
        "label": "enum OO_BetHandler.BetStatus",
        "numberOfBytes": "1"
      },
      "t_mapping(t_address,t_array(t_uint256)dyn_storage)": {
        "encoding": "mapping",
        "key": "t_address",
        "label": "mapping(address => uint256[])",
        "numberOfBytes": "32",
        "value": "t_array(t_uint256)dyn_storage"
      },
      "t_mapping(t_uint256,t_struct(Bet)557_storage)": {
        "encoding": "mapping",
        "key": "t_uint256",
        "label": "mapping(uint256 => struct OO_BetHandler.Bet)",
        "numberOfBytes": "32",
        "value": "t_struct(Bet)557_storage"
      },
      "t_struct(Bet)557_storage": {
        "encoding": "inplace",
        "label": "struct OO_BetHandler.Bet",
        "members": [
          {
            "astId": 532,
            "contract": "contracts/OO_BetHandler.sol:OO_BetHandler",
            "label": "question",
            "offset": 0,
            "slot": "0",
            "type": "t_bytes_storage"
          },
          {
            "astId": 535,
            "contract": "contracts/OO_BetHandler.sol:OO_BetHandler",
            "label": "bondCurrency",
            "offset": 0,
            "slot": "1",
            "type": "t_contract(IERC20)117"
          },
          {
            "astId": 537,
            "contract": "contracts/OO_BetHandler.sol:OO_BetHandler",
            "label": "reward",
            "offset": 0,
            "slot": "2",
            "type": "t_uint256"
          },
          {
            "astId": 539,
            "contract": "contracts/OO_BetHandler.sol:OO_BetHandler",
            "label": "liveness",
            "offset": 0,
            "slot": "3",
            "type": "t_uint256"
          },
          {
            "astId": 541,
            "contract": "contracts/OO_BetHandler.sol:OO_BetHandler",
            "label": "creator",
            "offset": 0,
            "slot": "4",
            "type": "t_address"
          },
          {
            "astId": 543,
            "contract": "contracts/OO_BetHandler.sol:OO_BetHandler",
            "label": "privateBet",
            "offset": 20,
            "slot": "4",
            "type": "t_bool"
          },
          {
            "astId": 545,
            "contract": "contracts/OO_BetHandler.sol:OO_BetHandler",
            "label": "affirmation",
            "offset": 0,
            "slot": "5",
            "type": "t_address"
          },
          {
            "astId": 547,
            "contract": "contracts/OO_BetHandler.sol:OO_BetHandler",
            "label": "affirmationAmount",
            "offset": 0,
            "slot": "6",
            "type": "t_uint256"
          },
          {
            "astId": 549,
            "contract": "contracts/OO_BetHandler.sol:OO_BetHandler",
            "label": "negation",
            "offset": 0,
            "slot": "7",
            "type": "t_address"
          },
          {
            "astId": 551,
            "contract": "contracts/OO_BetHandler.sol:OO_BetHandler",
            "label": "negationAmount",
            "offset": 0,
            "slot": "8",
            "type": "t_uint256"
          },
          {
            "astId": 553,
            "contract": "contracts/OO_BetHandler.sol:OO_BetHandler",
            "label": "betId",
            "offset": 0,
            "slot": "9",
            "type": "t_uint256"
          },
          {
            "astId": 556,
            "contract": "contracts/OO_BetHandler.sol:OO_BetHandler",
            "label": "betStatus",
            "offset": 0,
            "slot": "10",
            "type": "t_enum(BetStatus)564"
          }
        ],
        "numberOfBytes": "352"
      },
      "t_uint256": {
        "encoding": "inplace",
        "label": "uint256",
        "numberOfBytes": "32"
      }
    }
  }
}