{
  "address": "0x996F097d2A2817f86727d2862F089857fCa70814",
  "abi": [
    {
      "anonymous": false,
      "inputs": [
        {
          "indexed": true,
          "internalType": "uint256",
          "name": "betId",
          "type": "uint256"
        },
        {
          "indexed": true,
          "internalType": "address",
          "name": "bondCurrency",
          "type": "address"
        },
        {
          "indexed": true,
          "internalType": "uint256",
          "name": "refundAmount",
          "type": "uint256"
        }
      ],
      "name": "BetCanceled",
      "type": "event"
    },
    {
      "anonymous": false,
      "inputs": [
        {
          "indexed": true,
          "internalType": "uint256",
          "name": "betId",
          "type": "uint256"
        },
        {
          "indexed": true,
          "internalType": "uint256",
          "name": "affirmationRefund",
          "type": "uint256"
        },
        {
          "indexed": true,
          "internalType": "uint256",
          "name": "negationRefund",
          "type": "uint256"
        }
      ],
      "name": "BetKilled",
      "type": "event"
    },
    {
      "anonymous": false,
      "inputs": [
        {
          "indexed": true,
          "internalType": "address",
          "name": "creator",
          "type": "address"
        },
        {
          "indexed": true,
          "internalType": "address",
          "name": "bondCurrency",
          "type": "address"
        },
        {
          "indexed": true,
          "internalType": "bytes",
          "name": "ancillaryData",
          "type": "bytes"
        },
        {
          "indexed": false,
          "internalType": "uint256",
          "name": "betId",
          "type": "uint256"
        }
      ],
      "name": "BetSet",
      "type": "event"
    },
    {
      "anonymous": false,
      "inputs": [
        {
          "indexed": true,
          "internalType": "address",
          "name": "affirmation",
          "type": "address"
        },
        {
          "indexed": true,
          "internalType": "address",
          "name": "negation",
          "type": "address"
        },
        {
          "indexed": true,
          "internalType": "uint256",
          "name": "betId",
          "type": "uint256"
        }
      ],
      "name": "BetSettled",
      "type": "event"
    },
    {
      "anonymous": false,
      "inputs": [
        {
          "indexed": true,
          "internalType": "address",
          "name": "taker",
          "type": "address"
        },
        {
          "indexed": true,
          "internalType": "uint256",
          "name": "betId",
          "type": "uint256"
        }
      ],
      "name": "BetTaken",
      "type": "event"
    },
    {
      "anonymous": false,
      "inputs": [
        {
          "indexed": true,
          "internalType": "address",
          "name": "affirmation",
          "type": "address"
        },
        {
          "indexed": true,
          "internalType": "address",
          "name": "negation",
          "type": "address"
        },
        {
          "indexed": true,
          "internalType": "uint256",
          "name": "betId",
          "type": "uint256"
        }
      ],
      "name": "DataRequested",
      "type": "event"
    },
    {
      "anonymous": false,
      "inputs": [
        {
          "indexed": true,
          "internalType": "uint256",
          "name": "betId",
          "type": "uint256"
        },
        {
          "indexed": true,
          "internalType": "uint256",
          "name": "totalWinnings",
          "type": "uint256"
        },
        {
          "indexed": true,
          "internalType": "int256",
          "name": "winner",
          "type": "int256"
        }
      ],
      "name": "WinningsClaimed",
      "type": "event"
    },
    {
      "inputs": [],
      "name": "betId",
      "outputs": [
        {
          "internalType": "uint256",
          "name": "",
          "type": "uint256"
        }
      ],
      "stateMutability": "view",
      "type": "function"
    },
    {
      "inputs": [
        {
          "internalType": "uint256",
          "name": "",
          "type": "uint256"
        }
      ],
      "name": "bets",
      "outputs": [
        {
          "internalType": "bytes",
          "name": "question",
          "type": "bytes"
        },
        {
          "internalType": "contract IERC20",
          "name": "bondCurrency",
          "type": "address"
        },
        {
          "internalType": "uint256",
          "name": "reward",
          "type": "uint256"
        },
        {
          "internalType": "uint256",
          "name": "liveness",
          "type": "uint256"
        },
        {
          "internalType": "address",
          "name": "creator",
          "type": "address"
        },
        {
          "internalType": "bool",
          "name": "privateBet",
          "type": "bool"
        },
        {
          "internalType": "address",
          "name": "affirmation",
          "type": "address"
        },
        {
          "internalType": "uint256",
          "name": "affirmationAmount",
          "type": "uint256"
        },
        {
          "internalType": "address",
          "name": "negation",
          "type": "address"
        },
        {
          "internalType": "uint256",
          "name": "negationAmount",
          "type": "uint256"
        },
        {
          "internalType": "uint256",
          "name": "betId",
          "type": "uint256"
        },
        {
          "internalType": "enum OO_BetHandler.BetStatus",
          "name": "betStatus",
          "type": "uint8"
        }
      ],
      "stateMutability": "view",
      "type": "function"
    },
    {
      "inputs": [
        {
          "internalType": "uint256",
          "name": "_betId",
          "type": "uint256"
        }
      ],
      "name": "cancelBet",
      "outputs": [],
      "stateMutability": "nonpayable",
      "type": "function"
    },
    {
      "inputs": [
        {
          "internalType": "uint256",
          "name": "_betId",
          "type": "uint256"
        }
      ],
      "name": "claimWinnings",
      "outputs": [],
      "stateMutability": "nonpayable",
      "type": "function"
    },
    {
      "inputs": [
        {
          "internalType": "string",
          "name": "_question",
          "type": "string"
        }
      ],
      "name": "createQuestion",
      "outputs": [
        {
          "internalType": "bytes",
          "name": "",
          "type": "bytes"
        }
      ],
      "stateMutability": "pure",
      "type": "function"
    },
    {
      "inputs": [
        {
          "internalType": "uint256",
          "name": "_betId",
          "type": "uint256"
        }
      ],
      "name": "getSettledData",
      "outputs": [
        {
          "internalType": "int256",
          "name": "",
          "type": "int256"
        }
      ],
      "stateMutability": "view",
      "type": "function"
    },
    {
      "inputs": [
        {
          "internalType": "uint256",
          "name": "_betId",
          "type": "uint256"
        }
      ],
      "name": "killBet",
      "outputs": [],
      "stateMutability": "nonpayable",
      "type": "function"
    },
    {
      "inputs": [
        {
          "internalType": "uint256",
          "name": "_betId",
          "type": "uint256"
        }
      ],
      "name": "requestData",
      "outputs": [],
      "stateMutability": "nonpayable",
      "type": "function"
    },
    {
      "inputs": [
        {
          "internalType": "string",
          "name": "_question",
          "type": "string"
        },
        {
          "internalType": "address",
          "name": "_bondCurrency",
          "type": "address"
        },
        {
          "internalType": "uint256",
          "name": "_reward",
          "type": "uint256"
        },
        {
          "internalType": "uint256",
          "name": "_liveness",
          "type": "uint256"
        },
        {
          "internalType": "bool",
          "name": "_privateBet",
          "type": "bool"
        },
        {
          "internalType": "address",
          "name": "_privateBetRecipient",
          "type": "address"
        },
        {
          "internalType": "bool",
          "name": "_affirmation",
          "type": "bool"
        },
        {
          "internalType": "uint256",
          "name": "_betAmount",
          "type": "uint256"
        },
        {
          "internalType": "uint256",
          "name": "_counterBetAmount",
          "type": "uint256"
        }
      ],
      "name": "setBet",
      "outputs": [],
      "stateMutability": "nonpayable",
      "type": "function"
    },
    {
      "inputs": [
        {
          "internalType": "uint256",
          "name": "_betId",
          "type": "uint256"
        }
      ],
      "name": "settleRequest",
      "outputs": [],
      "stateMutability": "nonpayable",
      "type": "function"
    },
    {
      "inputs": [
        {
          "internalType": "uint256",
          "name": "_betId",
          "type": "uint256"
        }
      ],
      "name": "takeBet",
      "outputs": [],
      "stateMutability": "nonpayable",
      "type": "function"
    },
    {
      "inputs": [
        {
          "internalType": "address",
          "name": "",
          "type": "address"
        },
        {
          "internalType": "uint256",
          "name": "",
          "type": "uint256"
        }
      ],
      "name": "userBets",
      "outputs": [
        {
          "internalType": "uint256",
          "name": "",
          "type": "uint256"
        }
      ],
      "stateMutability": "view",
      "type": "function"
    }
  ],
  "transactionHash": "0x5bdc51aeb40612fee0b9cf8b6e73b3c5a8e15c4c872881174173b5526cf90b32",
  "args": [],
  "numDeployments": 6,
  "solcInputHash": "d1f44e050c2e8f8067b98fdce9e1b46d",
  "bytecode": "0x608060405273a5b9d8a0b0fa04ba71bdd68069661ed5c0848884600160006101000a81548173ffffffffffffffffffffffffffffffffffffffff021916908373ffffffffffffffffffffffffffffffffffffffff1602179055506000600255600060035534801561006f57600080fd5b506001600081905550613f3e806100876000396000f3fe608060405234801561001057600080fd5b50600436106100b45760003560e01c80638068aa68116100715780638068aa6814610182578063b3580c1e146101b2578063c511a074146101e2578063d247f92b146101fe578063dc60054e1461021a578063e5da66af14610236576100b4565b80630de2f6ba146100b957806322af00fa146100d557806327bce91b146101105780632adb9e3c1461012e578063357401f51461014a578063677bd9ff14610166575b600080fd5b6100d360048036038101906100ce91906128bb565b610266565b005b6100ef60048036038101906100ea91906129a6565b6108cc565b6040516101079c9b9a99989796959493929190612b66565b60405180910390f35b610118610a4e565b6040516101259190612c27565b60405180910390f35b610148600480360381019061014391906129a6565b610a54565b005b610164600480360381019061015f91906129a6565b610ec6565b005b610180600480360381019061017b91906129a6565b6111c0565b005b61019c60048036038101906101979190612c42565b6116f2565b6040516101a99190612c27565b60405180910390f35b6101cc60048036038101906101c79190612db2565b611723565b6040516101d99190612dfb565b60405180910390f35b6101fc60048036038101906101f791906129a6565b611752565b005b610218600480360381019061021391906129a6565b611d91565b005b610234600480360381019061022f91906129a6565b612107565b005b610250600480360381019061024b91906129a6565b6124ec565b60405161025d9190612e36565b60405180910390f35b61026e61271d565b8373ffffffffffffffffffffffffffffffffffffffff163373ffffffffffffffffffffffffffffffffffffffff16036102dc576040517f08c379a00000000000000000000000000000000000000000000000000000000081526004016102d390612eae565b60405180910390fd5b600115158515150361035c57600073ffffffffffffffffffffffffffffffffffffffff168473ffffffffffffffffffffffffffffffffffffffff1603610357576040517f08c379a000000000000000000000000000000000000000000000000000000000815260040161034e90612f40565b60405180910390fd5b6103cc565b600073ffffffffffffffffffffffffffffffffffffffff168473ffffffffffffffffffffffffffffffffffffffff16146103cb576040517f08c379a00000000000000000000000000000000000000000000000000000000081526004016103c290612fac565b60405180910390fd5b5b600061041b8b8b8080601f016020809104026020016040519081016040528093929190818152602001838380828437600081840152601f19601f82011690508083019250505050505050611723565b9050600089905060008060008060011515891515036104425733935087925086905061044c565b3391508790508692505b600115158b15150361049b573373ffffffffffffffffffffffffffffffffffffffff168473ffffffffffffffffffffffffffffffffffffffff16146104945789935083610499565b899150815b505b60006040518061018001604052808881526020018773ffffffffffffffffffffffffffffffffffffffff1681526020018f81526020018e81526020013373ffffffffffffffffffffffffffffffffffffffff1681526020018d151581526020018673ffffffffffffffffffffffffffffffffffffffff1681526020018581526020018473ffffffffffffffffffffffffffffffffffffffff16815260200183815260200160035481526020016000600581111561055b5761055a612aef565b5b81525090508573ffffffffffffffffffffffffffffffffffffffff166323b872dd33308c6040518463ffffffff1660e01b815260040161059d93929190612fcc565b6020604051808303816000875af11580156105bc573d6000803e3d6000fd5b505050506040513d601f19601f820116820180604052508101906105e09190613018565b50866040516105ef9190613081565b60405180910390208f73ffffffffffffffffffffffffffffffffffffffff163373ffffffffffffffffffffffffffffffffffffffff167f312377a74e3b2d3c110c0a87dc9a32bdfe8152f1163bc6ebbf8549394889ddfd6003546040516106569190612c27565b60405180910390a4806004600060035481526020019081526020016000206000820151816000019081610689919061329a565b5060208201518160010160006101000a81548173ffffffffffffffffffffffffffffffffffffffff021916908373ffffffffffffffffffffffffffffffffffffffff160217905550604082015181600201556060820151816003015560808201518160040160006101000a81548173ffffffffffffffffffffffffffffffffffffffff021916908373ffffffffffffffffffffffffffffffffffffffff16021790555060a08201518160040160146101000a81548160ff02191690831515021790555060c08201518160050160006101000a81548173ffffffffffffffffffffffffffffffffffffffff021916908373ffffffffffffffffffffffffffffffffffffffff16021790555060e082015181600601556101008201518160070160006101000a81548173ffffffffffffffffffffffffffffffffffffffff021916908373ffffffffffffffffffffffffffffffffffffffff1602179055506101208201518160080155610140820151816009015561016082015181600a0160006101000a81548160ff0219169083600581111561082757610826612aef565b5b0217905550905050600560003373ffffffffffffffffffffffffffffffffffffffff1673ffffffffffffffffffffffffffffffffffffffff16815260200190815260200160002060035490806001815401808255809150506001900390600052602060002001600090919091909150556001600360008282546108aa919061339b565b92505081905550505050505050506108c061276c565b50505050505050505050565b60046020528060005260406000206000915090508060000180546108ef906130c7565b80601f016020809104026020016040519081016040528092919081815260200182805461091b906130c7565b80156109685780601f1061093d57610100808354040283529160200191610968565b820191906000526020600020905b81548152906001019060200180831161094b57829003601f168201915b5050505050908060010160009054906101000a900473ffffffffffffffffffffffffffffffffffffffff16908060020154908060030154908060040160009054906101000a900473ffffffffffffffffffffffffffffffffffffffff16908060040160149054906101000a900460ff16908060050160009054906101000a900473ffffffffffffffffffffffffffffffffffffffff16908060060154908060070160009054906101000a900473ffffffffffffffffffffffffffffffffffffffff169080600801549080600901549080600a0160009054906101000a900460ff1690508c565b60035481565b600060046000838152602001908152602001600020905060016005811115610a7f57610a7e612aef565b5b81600a0160009054906101000a900460ff166005811115610aa357610aa2612aef565b5b14610ae3576040517f08c379a0000000000000000000000000000000000000000000000000000000008152600401610ada9061341b565b60405180910390fd5b3373ffffffffffffffffffffffffffffffffffffffff168160050160009054906101000a900473ffffffffffffffffffffffffffffffffffffffff1673ffffffffffffffffffffffffffffffffffffffff161480610b9057503373ffffffffffffffffffffffffffffffffffffffff168160070160009054906101000a900473ffffffffffffffffffffffffffffffffffffffff1673ffffffffffffffffffffffffffffffffffffffff16145b610b9957600080fd5b6000816000018054610baa906130c7565b80601f0160208091040260200160405190810160405280929190818152602001828054610bd6906130c7565b8015610c235780601f10610bf857610100808354040283529160200191610c23565b820191906000526020600020905b815481529060010190602001808311610c0657829003601f168201915b505050505090504260028190555060008260010160009054906101000a900473ffffffffffffffffffffffffffffffffffffffff169050600083600201549050600084600301549050600160009054906101000a900473ffffffffffffffffffffffffffffffffffffffff1673ffffffffffffffffffffffffffffffffffffffff166311df92f17f5945535f4f525f4e4f5f515545525900000000000000000000000000000000006002548787876040518663ffffffff1660e01b8152600401610cf1959493929190613454565b6020604051808303816000875af1158015610d10573d6000803e3d6000fd5b505050506040513d601f19601f82011682018060405250810190610d3491906134c3565b50600160009054906101000a900473ffffffffffffffffffffffffffffffffffffffff1673ffffffffffffffffffffffffffffffffffffffff1663473c45fe7f5945535f4f525f4e4f5f5155455259000000000000000000000000000000000060025487856040518563ffffffff1660e01b8152600401610db894939291906134f0565b600060405180830381600087803b158015610dd257600080fd5b505af1158015610de6573d6000803e3d6000fd5b50505050600285600a0160006101000a81548160ff02191690836005811115610e1257610e11612aef565b5b021790555084600901548560070160009054906101000a900473ffffffffffffffffffffffffffffffffffffffff1673ffffffffffffffffffffffffffffffffffffffff168660050160009054906101000a900473ffffffffffffffffffffffffffffffffffffffff1673ffffffffffffffffffffffffffffffffffffffff167f5fbd3f9d4c5b040345228923c9c25c84eaec691ee1219afc5f1d32caec1533ee60405160405180910390a4505050505050565b610ece61271d565b60006004600083815260200190815260200160002090506000806005811115610efa57610ef9612aef565b5b82600a0160009054906101000a900460ff166005811115610f1e57610f1d612aef565b5b14610f5e576040517f08c379a0000000000000000000000000000000000000000000000000000000008152600401610f5590613588565b60405180910390fd5b8160040160009054906101000a900473ffffffffffffffffffffffffffffffffffffffff1673ffffffffffffffffffffffffffffffffffffffff163373ffffffffffffffffffffffffffffffffffffffff1614610ff0576040517f08c379a0000000000000000000000000000000000000000000000000000000008152600401610fe7906135f4565b60405180910390fd5b8160050160009054906101000a900473ffffffffffffffffffffffffffffffffffffffff1673ffffffffffffffffffffffffffffffffffffffff168260040160009054906101000a900473ffffffffffffffffffffffffffffffffffffffff1673ffffffffffffffffffffffffffffffffffffffff1603611077578160060154905061107f565b816008015490505b8160010160009054906101000a900473ffffffffffffffffffffffffffffffffffffffff1673ffffffffffffffffffffffffffffffffffffffff1663a9059cbb8360040160009054906101000a900473ffffffffffffffffffffffffffffffffffffffff16836040518363ffffffff1660e01b8152600401611102929190613614565b6020604051808303816000875af1158015611121573d6000803e3d6000fd5b505050506040513d601f19601f820116820180604052508101906111459190613018565b50808260010160009054906101000a900473ffffffffffffffffffffffffffffffffffffffff1673ffffffffffffffffffffffffffffffffffffffff1683600901547ff17ce20c49b8c306870d5fe42f4badc29fd4c720a2c6a41dd2942f0cd8e77c3560405160405180910390a450506111bd61276c565b50565b6111c861271d565b60006004600083815260200190815260200160002090506000816008015482600601546111f5919061339b565b90506000611202846124ec565b90506003600581111561121857611217612aef565b5b83600a0160009054906101000a900460ff16600581111561123c5761123b612aef565b5b1461127c576040517f08c379a000000000000000000000000000000000000000000000000000000000815260040161127390613689565b60405180910390fd5b8260050160009054906101000a900473ffffffffffffffffffffffffffffffffffffffff1673ffffffffffffffffffffffffffffffffffffffff163373ffffffffffffffffffffffffffffffffffffffff16148061132957508260070160009054906101000a900473ffffffffffffffffffffffffffffffffffffffff1673ffffffffffffffffffffffffffffffffffffffff163373ffffffffffffffffffffffffffffffffffffffff16145b611368576040517f08c379a000000000000000000000000000000000000000000000000000000000815260040161135f906136f5565b60405180910390fd5b670de0b6b3a764000081148061137e5750600081145b6113bd576040517f08c379a00000000000000000000000000000000000000000000000000000000081526004016113b490613761565b60405180910390fd5b670de0b6b3a7640000810361152a578260050160009054906101000a900473ffffffffffffffffffffffffffffffffffffffff1673ffffffffffffffffffffffffffffffffffffffff163373ffffffffffffffffffffffffffffffffffffffff161461145e576040517f08c379a0000000000000000000000000000000000000000000000000000000008152600401611455906137cd565b60405180910390fd5b8260010160009054906101000a900473ffffffffffffffffffffffffffffffffffffffff1673ffffffffffffffffffffffffffffffffffffffff1663a9059cbb8460050160009054906101000a900473ffffffffffffffffffffffffffffffffffffffff16846040518363ffffffff1660e01b81526004016114e1929190613614565b6020604051808303816000875af1158015611500573d6000803e3d6000fd5b505050506040513d601f19601f820116820180604052508101906115249190613018565b50611684565b8260070160009054906101000a900473ffffffffffffffffffffffffffffffffffffffff1673ffffffffffffffffffffffffffffffffffffffff163373ffffffffffffffffffffffffffffffffffffffff16146115bc576040517f08c379a00000000000000000000000000000000000000000000000000000000081526004016115b390613839565b60405180910390fd5b8260010160009054906101000a900473ffffffffffffffffffffffffffffffffffffffff1673ffffffffffffffffffffffffffffffffffffffff1663a9059cbb8460070160009054906101000a900473ffffffffffffffffffffffffffffffffffffffff16846040518363ffffffff1660e01b815260040161163f929190613614565b6020604051808303816000875af115801561165e573d6000803e3d6000fd5b505050506040513d601f19601f820116820180604052508101906116829190613018565b505b600483600a0160006101000a81548160ff021916908360058111156116ac576116ab612aef565b5b0217905550808284600901547f709206e7f06feafb753d2514917296d705b6de50ca1ce52acb5d16c19efc95b660405160405180910390a45050506116ef61276c565b50565b6005602052816000526040600020818154811061170e57600080fd5b90600052602060002001600091509150505481565b60606000826040516020016117389190613938565b604051602081830303815290604052905080915050919050565b61175a61271d565b60006004600083815260200190815260200160002090508060040160009054906101000a900473ffffffffffffffffffffffffffffffffffffffff1673ffffffffffffffffffffffffffffffffffffffff163373ffffffffffffffffffffffffffffffffffffffff1603611803576040517f08c379a00000000000000000000000000000000000000000000000000000000081526004016117fa906139b5565b60405180910390fd5b600015158160040160149054906101000a900460ff1615150361191357600073ffffffffffffffffffffffffffffffffffffffff168160050160009054906101000a900473ffffffffffffffffffffffffffffffffffffffff1673ffffffffffffffffffffffffffffffffffffffff1614806118cf5750600073ffffffffffffffffffffffffffffffffffffffff168160070160009054906101000a900473ffffffffffffffffffffffffffffffffffffffff1673ffffffffffffffffffffffffffffffffffffffff16145b61190e576040517f08c379a000000000000000000000000000000000000000000000000000000000815260040161190590613a21565b60405180910390fd5b611a00565b8060050160009054906101000a900473ffffffffffffffffffffffffffffffffffffffff1673ffffffffffffffffffffffffffffffffffffffff163373ffffffffffffffffffffffffffffffffffffffff1614806119c057508060070160009054906101000a900473ffffffffffffffffffffffffffffffffffffffff1673ffffffffffffffffffffffffffffffffffffffff163373ffffffffffffffffffffffffffffffffffffffff16145b6119ff576040517f08c379a00000000000000000000000000000000000000000000000000000000081526004016119f690613a8d565b60405180910390fd5b5b60006005811115611a1457611a13612aef565b5b81600a0160009054906101000a900460ff166005811115611a3857611a37612aef565b5b14611a78576040517f08c379a0000000000000000000000000000000000000000000000000000000008152600401611a6f90613af9565b60405180910390fd5b600073ffffffffffffffffffffffffffffffffffffffff168160050160009054906101000a900473ffffffffffffffffffffffffffffffffffffffff1673ffffffffffffffffffffffffffffffffffffffff1603611bc1578060010160009054906101000a900473ffffffffffffffffffffffffffffffffffffffff1673ffffffffffffffffffffffffffffffffffffffff166323b872dd333084600601546040518463ffffffff1660e01b8152600401611b3593929190612fcc565b6020604051808303816000875af1158015611b54573d6000803e3d6000fd5b505050506040513d601f19601f82011682018060405250810190611b789190613018565b50338160050160006101000a81548173ffffffffffffffffffffffffffffffffffffffff021916908373ffffffffffffffffffffffffffffffffffffffff160217905550611cae565b8060010160009054906101000a900473ffffffffffffffffffffffffffffffffffffffff1673ffffffffffffffffffffffffffffffffffffffff166323b872dd333084600801546040518463ffffffff1660e01b8152600401611c2693929190612fcc565b6020604051808303816000875af1158015611c45573d6000803e3d6000fd5b505050506040513d601f19601f82011682018060405250810190611c699190613018565b50338160070160006101000a81548173ffffffffffffffffffffffffffffffffffffffff021916908373ffffffffffffffffffffffffffffffffffffffff1602179055505b600560003373ffffffffffffffffffffffffffffffffffffffff1673ffffffffffffffffffffffffffffffffffffffff168152602001908152602001600020829080600181540180825580915050600190039060005260206000200160009091909190915055600181600a0160006101000a81548160ff02191690836005811115611d3c57611d3b612aef565b5b0217905550813373ffffffffffffffffffffffffffffffffffffffff167f7ed1ee25a0f4816f901eaf4400ccb456dde0d54382927ffb9a58123e9fabc2e960405160405180910390a350611d8e61276c565b50565b600060046000838152602001908152602001600020905060026005811115611dbc57611dbb612aef565b5b81600a0160009054906101000a900460ff166005811115611de057611ddf612aef565b5b14611e20576040517f08c379a0000000000000000000000000000000000000000000000000000000008152600401611e1790613b65565b60405180910390fd5b3373ffffffffffffffffffffffffffffffffffffffff168160050160009054906101000a900473ffffffffffffffffffffffffffffffffffffffff1673ffffffffffffffffffffffffffffffffffffffff161480611ecd57503373ffffffffffffffffffffffffffffffffffffffff168160070160009054906101000a900473ffffffffffffffffffffffffffffffffffffffff1673ffffffffffffffffffffffffffffffffffffffff16145b611ed657600080fd5b6000816000018054611ee7906130c7565b80601f0160208091040260200160405190810160405280929190818152602001828054611f13906130c7565b8015611f605780601f10611f3557610100808354040283529160200191611f60565b820191906000526020600020905b815481529060010190602001808311611f4357829003601f168201915b50505050509050600160009054906101000a900473ffffffffffffffffffffffffffffffffffffffff1673ffffffffffffffffffffffffffffffffffffffff16635e9a79a9307f5945535f4f525f4e4f5f51554552590000000000000000000000000000000000600254856040518563ffffffff1660e01b8152600401611fea9493929190613b85565b6020604051808303816000875af1158015612009573d6000803e3d6000fd5b505050506040513d601f19601f8201168201806040525081019061202d91906134c3565b50600382600a0160006101000a81548160ff0219169083600581111561205657612055612aef565b5b021790555081600901548260070160009054906101000a900473ffffffffffffffffffffffffffffffffffffffff1673ffffffffffffffffffffffffffffffffffffffff168360050160009054906101000a900473ffffffffffffffffffffffffffffffffffffffff1673ffffffffffffffffffffffffffffffffffffffff167fdbcd882d372171aa04f1d1af4b104cb44e653afc5e0e24f66d1750aeaffd9fec60405160405180910390a4505050565b61210f61271d565b60006004600083815260200190815260200160002090506000612131836124ec565b90506003600581111561214757612146612aef565b5b82600a0160009054906101000a900460ff16600581111561216b5761216a612aef565b5b146121ab576040517f08c379a00000000000000000000000000000000000000000000000000000000081526004016121a290613689565b60405180910390fd5b8160050160009054906101000a900473ffffffffffffffffffffffffffffffffffffffff1673ffffffffffffffffffffffffffffffffffffffff163373ffffffffffffffffffffffffffffffffffffffff16148061225857508160070160009054906101000a900473ffffffffffffffffffffffffffffffffffffffff1673ffffffffffffffffffffffffffffffffffffffff163373ffffffffffffffffffffffffffffffffffffffff16145b612297576040517f08c379a000000000000000000000000000000000000000000000000000000000815260040161228e906136f5565b60405180910390fd5b671bc16d674ec8000081146122e1576040517f08c379a00000000000000000000000000000000000000000000000000000000081526004016122d890613c1d565b60405180910390fd5b8160010160009054906101000a900473ffffffffffffffffffffffffffffffffffffffff1673ffffffffffffffffffffffffffffffffffffffff1663a9059cbb8360050160009054906101000a900473ffffffffffffffffffffffffffffffffffffffff1684600601546040518363ffffffff1660e01b8152600401612368929190613614565b6020604051808303816000875af1158015612387573d6000803e3d6000fd5b505050506040513d601f19601f820116820180604052508101906123ab9190613018565b508160010160009054906101000a900473ffffffffffffffffffffffffffffffffffffffff1673ffffffffffffffffffffffffffffffffffffffff1663a9059cbb8360070160009054906101000a900473ffffffffffffffffffffffffffffffffffffffff1684600801546040518363ffffffff1660e01b8152600401612433929190613614565b6020604051808303816000875af1158015612452573d6000803e3d6000fd5b505050506040513d601f19601f820116820180604052508101906124769190613018565b50600582600a0160006101000a81548160ff0219169083600581111561249f5761249e612aef565b5b02179055508160080154826006015483600901547fec8d8a8188ba892bee2a040ee842eb77c0938d7c08100955525d8f68da30a18260405160405180910390a450506124e961276c565b50565b6000806004600084815260200190815260200160002090503373ffffffffffffffffffffffffffffffffffffffff168160050160009054906101000a900473ffffffffffffffffffffffffffffffffffffffff1673ffffffffffffffffffffffffffffffffffffffff1614806125b157503373ffffffffffffffffffffffffffffffffffffffff168160070160009054906101000a900473ffffffffffffffffffffffffffffffffffffffff1673ffffffffffffffffffffffffffffffffffffffff16145b6125ba57600080fd5b60008160000180546125cb906130c7565b80601f01602080910402602001604051908101604052809291908181526020018280546125f7906130c7565b80156126445780601f1061261957610100808354040283529160200191612644565b820191906000526020600020905b81548152906001019060200180831161262757829003601f168201915b50505050509050600160009054906101000a900473ffffffffffffffffffffffffffffffffffffffff1673ffffffffffffffffffffffffffffffffffffffff1663a9904f9b307f5945535f4f525f4e4f5f51554552590000000000000000000000000000000000600254856040518563ffffffff1660e01b81526004016126ce9493929190613b85565b61020060405180830381865afa1580156126ec573d6000803e3d6000fd5b505050506040513d601f19601f820116820180604052508101906127109190613e6e565b60c0015192505050919050565b600260005403612762576040517f08c379a000000000000000000000000000000000000000000000000000000000815260040161275990613ee8565b60405180910390fd5b6002600081905550565b6001600081905550565b6000604051905090565b600080fd5b600080fd5b600080fd5b600080fd5b600080fd5b60008083601f8401126127af576127ae61278a565b5b8235905067ffffffffffffffff8111156127cc576127cb61278f565b5b6020830191508360018202830111156127e8576127e7612794565b5b9250929050565b600073ffffffffffffffffffffffffffffffffffffffff82169050919050565b600061281a826127ef565b9050919050565b61282a8161280f565b811461283557600080fd5b50565b60008135905061284781612821565b92915050565b6000819050919050565b6128608161284d565b811461286b57600080fd5b50565b60008135905061287d81612857565b92915050565b60008115159050919050565b61289881612883565b81146128a357600080fd5b50565b6000813590506128b58161288f565b92915050565b6000806000806000806000806000806101208b8d0312156128df576128de612780565b5b60008b013567ffffffffffffffff8111156128fd576128fc612785565b5b6129098d828e01612799565b9a509a5050602061291c8d828e01612838565b985050604061292d8d828e0161286e565b975050606061293e8d828e0161286e565b965050608061294f8d828e016128a6565b95505060a06129608d828e01612838565b94505060c06129718d828e016128a6565b93505060e06129828d828e0161286e565b9250506101006129948d828e0161286e565b9150509295989b9194979a5092959850565b6000602082840312156129bc576129bb612780565b5b60006129ca8482850161286e565b91505092915050565b600081519050919050565b600082825260208201905092915050565b60005b83811015612a0d5780820151818401526020810190506129f2565b60008484015250505050565b6000601f19601f8301169050919050565b6000612a35826129d3565b612a3f81856129de565b9350612a4f8185602086016129ef565b612a5881612a19565b840191505092915050565b6000819050919050565b6000612a88612a83612a7e846127ef565b612a63565b6127ef565b9050919050565b6000612a9a82612a6d565b9050919050565b6000612aac82612a8f565b9050919050565b612abc81612aa1565b82525050565b612acb8161284d565b82525050565b612ada8161280f565b82525050565b612ae981612883565b82525050565b7f4e487b7100000000000000000000000000000000000000000000000000000000600052602160045260246000fd5b60068110612b2f57612b2e612aef565b5b50565b6000819050612b4082612b1e565b919050565b6000612b5082612b32565b9050919050565b612b6081612b45565b82525050565b6000610180820190508181036000830152612b81818f612a2a565b9050612b90602083018e612ab3565b612b9d604083018d612ac2565b612baa606083018c612ac2565b612bb7608083018b612ad1565b612bc460a083018a612ae0565b612bd160c0830189612ad1565b612bde60e0830188612ac2565b612bec610100830187612ad1565b612bfa610120830186612ac2565b612c08610140830185612ac2565b612c16610160830184612b57565b9d9c50505050505050505050505050565b6000602082019050612c3c6000830184612ac2565b92915050565b60008060408385031215612c5957612c58612780565b5b6000612c6785828601612838565b9250506020612c788582860161286e565b9150509250929050565b600080fd5b7f4e487b7100000000000000000000000000000000000000000000000000000000600052604160045260246000fd5b612cbf82612a19565b810181811067ffffffffffffffff82111715612cde57612cdd612c87565b5b80604052505050565b6000612cf1612776565b9050612cfd8282612cb6565b919050565b600067ffffffffffffffff821115612d1d57612d1c612c87565b5b612d2682612a19565b9050602081019050919050565b82818337600083830152505050565b6000612d55612d5084612d02565b612ce7565b905082815260208101848484011115612d7157612d70612c82565b5b612d7c848285612d33565b509392505050565b600082601f830112612d9957612d9861278a565b5b8135612da9848260208601612d42565b91505092915050565b600060208284031215612dc857612dc7612780565b5b600082013567ffffffffffffffff811115612de657612de5612785565b5b612df284828501612d84565b91505092915050565b60006020820190508181036000830152612e158184612a2a565b905092915050565b6000819050919050565b612e3081612e1d565b82525050565b6000602082019050612e4b6000830184612e27565b92915050565b600082825260208201905092915050565b7f43616e27742062657420796f757273656c660000000000000000000000000000600082015250565b6000612e98601283612e51565b9150612ea382612e62565b602082019050919050565b60006020820190508181036000830152612ec781612e8b565b9050919050565b7f507269766174652062657473206d75737420686176652061207265636970696560008201527f6e74000000000000000000000000000000000000000000000000000000000000602082015250565b6000612f2a602283612e51565b9150612f3582612ece565b604082019050919050565b60006020820190508181036000830152612f5981612f1d565b9050919050565b7f5075626c696320626574206d7573742062652030206164647265737300000000600082015250565b6000612f96601c83612e51565b9150612fa182612f60565b602082019050919050565b60006020820190508181036000830152612fc581612f89565b9050919050565b6000606082019050612fe16000830186612ad1565b612fee6020830185612ad1565b612ffb6040830184612ac2565b949350505050565b6000815190506130128161288f565b92915050565b60006020828403121561302e5761302d612780565b5b600061303c84828501613003565b91505092915050565b600081905092915050565b600061305b826129d3565b6130658185613045565b93506130758185602086016129ef565b80840191505092915050565b600061308d8284613050565b915081905092915050565b7f4e487b7100000000000000000000000000000000000000000000000000000000600052602260045260246000fd5b600060028204905060018216806130df57607f821691505b6020821081036130f2576130f1613098565b5b50919050565b60008190508160005260206000209050919050565b60006020601f8301049050919050565b600082821b905092915050565b60006008830261315a7fffffffffffffffffffffffffffffffffffffffffffffffffffffffffffffffff8261311d565b613164868361311d565b95508019841693508086168417925050509392505050565b600061319761319261318d8461284d565b612a63565b61284d565b9050919050565b6000819050919050565b6131b18361317c565b6131c56131bd8261319e565b84845461312a565b825550505050565b600090565b6131da6131cd565b6131e58184846131a8565b505050565b5b81811015613209576131fe6000826131d2565b6001810190506131eb565b5050565b601f82111561324e5761321f816130f8565b6132288461310d565b81016020851015613237578190505b61324b6132438561310d565b8301826131ea565b50505b505050565b600082821c905092915050565b600061327160001984600802613253565b1980831691505092915050565b600061328a8383613260565b9150826002028217905092915050565b6132a3826129d3565b67ffffffffffffffff8111156132bc576132bb612c87565b5b6132c682546130c7565b6132d182828561320d565b600060209050601f83116001811461330457600084156132f2578287015190505b6132fc858261327e565b865550613364565b601f198416613312866130f8565b60005b8281101561333a57848901518255600182019150602085019450602081019050613315565b868310156133575784890151613353601f891682613260565b8355505b6001600288020188555050505b505050505050565b7f4e487b7100000000000000000000000000000000000000000000000000000000600052601160045260246000fd5b60006133a68261284d565b91506133b18361284d565b92508282019050808211156133c9576133c861336c565b5b92915050565b7f426574206e6f7420726561647920746f20626520736574746c65640000000000600082015250565b6000613405601b83612e51565b9150613410826133cf565b602082019050919050565b60006020820190508181036000830152613434816133f8565b9050919050565b6000819050919050565b61344e8161343b565b82525050565b600060a0820190506134696000830188613445565b6134766020830187612ac2565b81810360408301526134888186612a2a565b90506134976060830185612ab3565b6134a46080830184612ac2565b9695505050505050565b6000815190506134bd81612857565b92915050565b6000602082840312156134d9576134d8612780565b5b60006134e7848285016134ae565b91505092915050565b60006080820190506135056000830187613445565b6135126020830186612ac2565b81810360408301526135248185612a2a565b90506135336060830184612ac2565b95945050505050565b7f42657420616c7265616479206163746976650000000000000000000000000000600082015250565b6000613572601283612e51565b915061357d8261353c565b602082019050919050565b600060208201905081810360008301526135a181613565565b9050919050565b7f4e6f74206265742063726561746f720000000000000000000000000000000000600082015250565b60006135de600f83612e51565b91506135e9826135a8565b602082019050919050565b6000602082019050818103600083015261360d816135d1565b9050919050565b60006040820190506136296000830185612ad1565b6136366020830184612ac2565b9392505050565b7f426574206e6f742079657420736574746c656400000000000000000000000000600082015250565b6000613673601383612e51565b915061367e8261363d565b602082019050919050565b600060208201905081810360008301526136a281613666565b9050919050565b7f54686973206973206e6f7420796f757220626574000000000000000000000000600082015250565b60006136df601483612e51565b91506136ea826136a9565b602082019050919050565b6000602082019050818103600083015261370e816136d2565b9050919050565b7f496e76616c696420736574746c656d656e740000000000000000000000000000600082015250565b600061374b601283612e51565b915061375682613715565b602082019050919050565b6000602082019050818103600083015261377a8161373e565b9050919050565b7f4e65676174696f6e20646964206e6f742077696e206265740000000000000000600082015250565b60006137b7601883612e51565b91506137c282613781565b602082019050919050565b600060208201905081810360008301526137e6816137aa565b9050919050565b7f41666669726d6174696f6e20646964206e6f742077696e206265740000000000600082015250565b6000613823601b83612e51565b915061382e826137ed565b602082019050919050565b6000602082019050818103600083015261385281613816565b9050919050565b7f513a200000000000000000000000000000000000000000000000000000000000815250565b600081519050919050565b600081905092915050565b60006138a08261387f565b6138aa818561388a565b93506138ba8185602086016129ef565b80840191505092915050565b7f3f202d2d2d20413a3120666f72207965732e203020666f72206e6f2e2032206660008201527f6f7220616d626967756f75732f756e6b6e6f7761626c65000000000000000000602082015250565b600061392260378361388a565b915061392d826138c6565b603782019050919050565b600061394382613859565b6003820191506139538284613895565b915061395e82613915565b915081905092915050565b7f43616e27742074616b6520796f7572206f776e20626574000000000000000000600082015250565b600061399f601783612e51565b91506139aa82613969565b602082019050919050565b600060208201905081810360008301526139ce81613992565b9050919050565b7f42657420616c72656164792074616b656e000000000000000000000000000000600082015250565b6000613a0b601183612e51565b9150613a16826139d5565b602082019050919050565b60006020820190508181036000830152613a3a816139fe565b9050919050565b7f4e6f742062657420726563697069656e74000000000000000000000000000000600082015250565b6000613a77601183612e51565b9150613a8282613a41565b602082019050919050565b60006020820190508181036000830152613aa681613a6a565b9050919050565b7f426574206e6f74204f70656e0000000000000000000000000000000000000000600082015250565b6000613ae3600c83612e51565b9150613aee82613aad565b602082019050919050565b60006020820190508181036000830152613b1281613ad6565b9050919050565b7f426574206e6f7420736574746c696e6700000000000000000000000000000000600082015250565b6000613b4f601083612e51565b9150613b5a82613b19565b602082019050919050565b60006020820190508181036000830152613b7e81613b42565b9050919050565b6000608082019050613b9a6000830187612ad1565b613ba76020830186613445565b613bb46040830185612ac2565b8181036060830152613bc68184612a2a565b905095945050505050565b7f42657420697320736574746c6561626c65000000000000000000000000000000600082015250565b6000613c07601183612e51565b9150613c1282613bd1565b602082019050919050565b60006020820190508181036000830152613c3681613bfa565b9050919050565b600080fd5b600081519050613c5181612821565b92915050565b6000613c628261280f565b9050919050565b613c7281613c57565b8114613c7d57600080fd5b50565b600081519050613c8f81613c69565b92915050565b600060e08284031215613cab57613caa613c3d565b5b613cb560e0612ce7565b90506000613cc584828501613003565b6000830152506020613cd984828501613003565b6020830152506040613ced84828501613003565b6040830152506060613d0184828501613003565b6060830152506080613d1584828501613003565b60808301525060a0613d29848285016134ae565b60a08301525060c0613d3d848285016134ae565b60c08301525092915050565b613d5281612e1d565b8114613d5d57600080fd5b50565b600081519050613d6f81613d49565b92915050565b60006102008284031215613d8c57613d8b613c3d565b5b613d97610140612ce7565b90506000613da784828501613c42565b6000830152506020613dbb84828501613c42565b6020830152506040613dcf84828501613c80565b6040830152506060613de384828501613003565b6060830152506080613df784828501613c95565b608083015250610160613e0c84828501613d60565b60a083015250610180613e2184828501613d60565b60c0830152506101a0613e36848285016134ae565b60e0830152506101c0613e4b848285016134ae565b610100830152506101e0613e61848285016134ae565b6101208301525092915050565b60006102008284031215613e8557613e84612780565b5b6000613e9384828501613d75565b91505092915050565b7f5265656e7472616e637947756172643a207265656e7472616e742063616c6c00600082015250565b6000613ed2601f83612e51565b9150613edd82613e9c565b602082019050919050565b60006020820190508181036000830152613f0181613ec5565b905091905056fea264697066735822122091f9283e545c9ec62b234f968e206316ecc877bf593b130ea16de88ed20ba59d64736f6c63430008100033",
  "devdoc": {
    "kind": "dev",
    "methods": {},
    "version": 1
  },
  "userdoc": {
    "kind": "user",
    "methods": {},
    "version": 1
  },
  "storageLayout": {
    "storage": [
      {
        "astId": 10,
        "contract": "contracts/OO_BetHandler.sol:OO_BetHandler",
        "label": "_status",
        "offset": 0,
        "slot": "0",
        "type": "t_uint256"
      },
      {
        "astId": 529,
        "contract": "contracts/OO_BetHandler.sol:OO_BetHandler",
        "label": "oo",
        "offset": 0,
        "slot": "1",
        "type": "t_contract(OptimisticOracleV2Interface)517"
      },
      {
        "astId": 532,
        "contract": "contracts/OO_BetHandler.sol:OO_BetHandler",
        "label": "requestTime",
        "offset": 0,
        "slot": "2",
        "type": "t_uint256"
      },
      {
        "astId": 637,
        "contract": "contracts/OO_BetHandler.sol:OO_BetHandler",
        "label": "betId",
        "offset": 0,
        "slot": "3",
        "type": "t_uint256"
      },
      {
        "astId": 642,
        "contract": "contracts/OO_BetHandler.sol:OO_BetHandler",
        "label": "bets",
        "offset": 0,
        "slot": "4",
        "type": "t_mapping(t_uint256,t_struct(Bet)571_storage)"
      },
      {
        "astId": 647,
        "contract": "contracts/OO_BetHandler.sol:OO_BetHandler",
        "label": "userBets",
        "offset": 0,
        "slot": "5",
        "type": "t_mapping(t_address,t_array(t_uint256)dyn_storage)"
      }
    ],
    "types": {
      "t_address": {
        "encoding": "inplace",
        "label": "address",
        "numberOfBytes": "20"
      },
      "t_array(t_uint256)dyn_storage": {
        "base": "t_uint256",
        "encoding": "dynamic_array",
        "label": "uint256[]",
        "numberOfBytes": "32"
      },
      "t_bool": {
        "encoding": "inplace",
        "label": "bool",
        "numberOfBytes": "1"
      },
      "t_bytes_storage": {
        "encoding": "bytes",
        "label": "bytes",
        "numberOfBytes": "32"
      },
      "t_contract(IERC20)131": {
        "encoding": "inplace",
        "label": "contract IERC20",
        "numberOfBytes": "20"
      },
      "t_contract(OptimisticOracleV2Interface)517": {
        "encoding": "inplace",
        "label": "contract OptimisticOracleV2Interface",
        "numberOfBytes": "20"
      },
      "t_enum(BetStatus)578": {
        "encoding": "inplace",
        "label": "enum OO_BetHandler.BetStatus",
        "numberOfBytes": "1"
      },
      "t_mapping(t_address,t_array(t_uint256)dyn_storage)": {
        "encoding": "mapping",
        "key": "t_address",
        "label": "mapping(address => uint256[])",
        "numberOfBytes": "32",
        "value": "t_array(t_uint256)dyn_storage"
      },
      "t_mapping(t_uint256,t_struct(Bet)571_storage)": {
        "encoding": "mapping",
        "key": "t_uint256",
        "label": "mapping(uint256 => struct OO_BetHandler.Bet)",
        "numberOfBytes": "32",
        "value": "t_struct(Bet)571_storage"
      },
      "t_struct(Bet)571_storage": {
        "encoding": "inplace",
        "label": "struct OO_BetHandler.Bet",
        "members": [
          {
            "astId": 546,
            "contract": "contracts/OO_BetHandler.sol:OO_BetHandler",
            "label": "question",
            "offset": 0,
            "slot": "0",
            "type": "t_bytes_storage"
          },
          {
            "astId": 549,
            "contract": "contracts/OO_BetHandler.sol:OO_BetHandler",
            "label": "bondCurrency",
            "offset": 0,
            "slot": "1",
            "type": "t_contract(IERC20)131"
          },
          {
            "astId": 551,
            "contract": "contracts/OO_BetHandler.sol:OO_BetHandler",
            "label": "reward",
            "offset": 0,
            "slot": "2",
            "type": "t_uint256"
          },
          {
            "astId": 553,
            "contract": "contracts/OO_BetHandler.sol:OO_BetHandler",
            "label": "liveness",
            "offset": 0,
            "slot": "3",
            "type": "t_uint256"
          },
          {
            "astId": 555,
            "contract": "contracts/OO_BetHandler.sol:OO_BetHandler",
            "label": "creator",
            "offset": 0,
            "slot": "4",
            "type": "t_address"
          },
          {
            "astId": 557,
            "contract": "contracts/OO_BetHandler.sol:OO_BetHandler",
            "label": "privateBet",
            "offset": 20,
            "slot": "4",
            "type": "t_bool"
          },
          {
            "astId": 559,
            "contract": "contracts/OO_BetHandler.sol:OO_BetHandler",
            "label": "affirmation",
            "offset": 0,
            "slot": "5",
            "type": "t_address"
          },
          {
            "astId": 561,
            "contract": "contracts/OO_BetHandler.sol:OO_BetHandler",
            "label": "affirmationAmount",
            "offset": 0,
            "slot": "6",
            "type": "t_uint256"
          },
          {
            "astId": 563,
            "contract": "contracts/OO_BetHandler.sol:OO_BetHandler",
            "label": "negation",
            "offset": 0,
            "slot": "7",
            "type": "t_address"
          },
          {
            "astId": 565,
            "contract": "contracts/OO_BetHandler.sol:OO_BetHandler",
            "label": "negationAmount",
            "offset": 0,
            "slot": "8",
            "type": "t_uint256"
          },
          {
            "astId": 567,
            "contract": "contracts/OO_BetHandler.sol:OO_BetHandler",
            "label": "betId",
            "offset": 0,
            "slot": "9",
            "type": "t_uint256"
          },
          {
            "astId": 570,
            "contract": "contracts/OO_BetHandler.sol:OO_BetHandler",
            "label": "betStatus",
            "offset": 0,
            "slot": "10",
            "type": "t_enum(BetStatus)578"
          }
        ],
        "numberOfBytes": "352"
      },
      "t_uint256": {
        "encoding": "inplace",
        "label": "uint256",
        "numberOfBytes": "32"
      }
    }
  }
}